:400000000010002011000000BD020000BD02000010B500F05BF9C04670B5194C23688022D20213432360182000F08EFF2268154B13402360144A154B1A603022144B1A60B6
:40004000103A144B1A60103A134B1A6080221206124B1A6000252560114A124B1A60124A124B1A60124A134B1A601349092000F029FF092000F010FF104B1D6070BDC04697
:4000800000010B40FFFFFBFF0600008004010B400C020240140202401802024008010B40FE00008000000240FE0000C0400002400E00008080000240591100000C020B40BB
:4000C00010B572B600240FE024486200131959000B00411889881A5AC31858880004104300F0C0F80134E4B2012CEDD91B4801000C312C3000F09CF8194A1A4B1A609923CD
:400100001B04194A1360194A136080229205184B1A6018490B783C22934314221343DBB20B70154A117816230B43DBB213700622124B1A600D32124B1A60124A124B1A606B
:400140001022124B1A600423114A1360114A1360FFF762FF00F0ACF810BDC046481D0000EEEE00000C00014010500F4030500F4038500F4001700F4000700F400801044046
:4001800000030440A40D00000803044018030440000404401804044010B5064C2378002B07D1054B002B02D0044800E000BF0123237010BD5801002000000000441D0000A6
:4001C000084B10B5002B03D00749084800E000BF07480368002B00D110BD064B002BFBD09847F9E7000000005C010020441D0000C00000200000000010B562B600F0A2FAFA
:4002000000F072FC00F0E4FA00F000FA002400F001F9002808D100F051FBC4B200F08CFC00F002FC00F0F2F9200000F0E7FFEEE7F0B50025002711E0BB00C658F3B2FF225A
:40024000964308E06A008A181478A419527822700135013BDBB2002BF4D10137042FEBD9F0BDC04610B50A00002101F063FD10BD0C4B1B68002803D080221206134301E067
:400280005B005B08074A1360074B1B68002803D080229204134301E0044A1340024A13607047C04680031A4008010B40FFFFFFFD10B50120FFF7DCFF10BDC04610B501F0F5
:4002C0000DFD03680C2B00D1FEE7FEE770B50F4E0F4D13E029686B68AC68002202E001C901C30432A242FAD1E868002202E0002102C304328242FAD11035013E002EE9D18C
:4003000001F0F2FCFFF778FFFEE7C046010000009C1E000010B500230AE0032B03D89A000949505800E009489900094A885001332F2BF2D9FFF7C4FE8022D2051168012340
:400340000B43136010BDC04600000000BD0200000000002070B516480368DBB2154A13700F24A3431900144D2B780F2213400B43E13293432A78A243134303600F4A104BC8
:400380001A60104A104B1A60104A1168104B0B40C021C9000B4313600F2000F087FD0D490F2000F08FFD03210F2000F09DFD70BD00FF0840C001002062F1FF0F0002000176
:4003C000080008400008A0010400084010000140FFF0FFFF4D0A000010B500F04BFD00F02DFD0021002000F031FD0021002000F049FD00F035FD00F017FD044A13680449FA
:400400000B4313600F2000F047FD10BD0400084000100880024B1878012318407047C046740100204000024B181880887047C0467401002070B501F079F908490A68084B87
:4004400013408022D2021343064C2568064A2A4022600B6001F06EF970BDC0460C000140FFFFF0FF08030440FF8FFFFF10B5104B1A5C10490868104B03400B60022A00D1D2
:400480000022012A01D1002400E0062401F04EF90A490A680A4B1340220313430B6001F049F9084A136810218B43136010BDC046D80100200C000140FFFFF0FF080304409D
:4004C000FF8FFFFF0003044010B5002403E02000FFF7CCFF0134002CF9D010BD044A11684002C023DB001840084310607047C04604000840CA0807231940063B8B40825C63
:40050000134201D0012000E00020704710B504000134E4B2012C06D0210004480430FFF7E9FF0028F4D0200010BDC046C4000020F8B50400214B1E6801002148FFF7DAFF08
:40054000204B9E4203D88640FF231B041E431E4B185D013880B2002100F078FC1B4B185D013880B2002100F08DFC0F2000F09EFC17480168174B1940174B1B5D174A125D59
:40058000120413430B430360154F3D68154B1D40154B1D430F2000F07FFC2000FFF74AFF01F0C4F804003D60002001F0B5F80F4B1E60200001F0BEF8F8BDC046C400002055
:4005C000C4010020FFFFFEFFDC010020CC0100200800084000FF80FFD0010020D401002004000840FF1FDFFF200020000C00084010B5054B00221A70C2B29A7181221A7034
:40060000FFF796FF10BDC0467401002010B50B4C00232370FF33A371A079C0B2FFF776FFA071A379002B08D1217801230B43DBB22370A079C0B2FFF77BFF10BD7401002000
:4006400070B50500154B1C68A4B24300144AD3189C80144B1A68144B9A4208D801001348FFF748FF6B000E4AD31804419C802800FFF7FCFE0F2000F019FC0D4A11680D4B56
:400680000B40A02109020B4313600B4A11680B4B0B4013600F2000F0FFFB70BD0C00084074010020C4000020FFFFFEFFC401002004000840FF1FDFFF0800084000FF80FF77
:4006C00010B5CC0807231940063B8B40DBB2002A04D0041922781343237003E0041922789A43227010BDC04670B50600002400250BE03000FFF77CFFFFF78CFE0128FBD057
:400700003000FFF78FFE24180135002DF1D0A0B270BDC046014B19547047C046D801002010B5002404E000212000FFF7F3FF0134002CF8D0FFF70EFE0020FFF7CFFEFFF7B8
:40074000C3FE10BD10B50B4BDB79002B04D1FFF7E7FF0122074BDA71FFF73EFE00F088FA0122044B1A72044A13688021C9030B43136010BD740100200400084030B5094B60
:400780001B5C42000849545A0849545208180025057105720648C05CCB181873054BD45230BDC046C41D00007801002080010020D0000020EC01002010B50400FFF718FF29
:4007C000FFF728FE0028FBD12000FFF7D7FF10BD10B5002403E02000FFF7EEFF0134002CF9D010BD10B5FFF711FFFFF713FE0028FBD1002409E021000548FFF77BFE002892
:4008000002D02000FFF7BAFF0134002CF3D010BDC8000020F0B5474680B40400224B1D5C224B5F5D224B5E5D224B5B5D9846010021481030FFF75EFE002810D01E4B1B19F9
:400840001B7ABE1BB34223DA1B4E3000103000222100FFF735FF751943462B7318E0164B1B191B7ABE19B3420EDB134B5D192B7B013BDBB22B73002B0AD1012221000E48C5
:400880001030FFF71DFF03E00B4B5D1943462B73210009481030FFF72DFE002800D0012004BC9046F0BDC046C41D0000F4010020F0010020D00000208001002010B500205E
:4008C000FFF7A8FF002800D0012010BD70B50025002406E02000FFF7F1FF002800D001250134002CF6D0280070BDC046401849004018800880B27047F0B5474680B482B079
:4009000004003C4B1E5C3C4B9B5D019342003B4BD75A3B4B5B79002B08D03A4D9046515B3800FFF7E3FF070043465853E1B2334A354800F0C3FF6300344A9A5A974207D32E
:400940000021334B1955BD1AADB20123984603E0D51BADB2002398464346002B15D12D4B9B5D9D4211D92A4B1B5D254A12191279934206D32000FFF701FF0022244B1A5556
:400980001EE00133224A13551AE06B469B889D4206D9204B9B5D9D4212D24346002B0FD113029C46194801190B7966463343FF18BF1A3A0A6300C2520F710022144B1A55B8
:4009C0006B469E88B5420DD94346002B0AD0FF2D04D90E4B1C19FF23237207E00B4B1C19257203E0094B1C190023237202B004BC9046F0BDC41D0000E001002078010020CA
:400A0000D0000020EC0100202402002080010020E4010020E801002010B5040000F0B0F82000FFF769FF10BD10B5002409E021000548FFF75FFD002802D02000FFF7ECFF8B
:400A40000134002CF3D010BDC800002010B50F2000F02CFA01221E4B1A601E4B1878C0B2FFF7EEFD1C4B1B785BB2002B05DA1A4A137801218B43137025E0164C2078C0B25D
:400A8000FFF744FD20702378002B05D1114B1878C0B2FFF74DFD16E00F4B1A7801218A431A701B785B060ED500220C4B1A7006E00B4AD15C0B4AD1540133084A1370074BC3
:400AC0001B78002BF4D00F2000F0E6F910BDC046140008407A0100207401002091010020C8010020C800002010B50A4C200000F011F9013C01232370FFF724FEFFF772FEED
:400B000000F09EFB22001421142000F041FCFFF77DFD10BDF901002010B50400FFF7D6FE002304E0034AD25CE2540133DBB2002BF8D010BD9001002010B5FFF76BFC002856
:400B400018D1FFF771FF0C4C2000FFF7E5FFE01E00F0F0F80B2000F09FF9084B5B78042BFBD100F003FC8306F7D40B2000F09EF9FFF74CFD10BDC046FC010020F8010020ED
:400B800070B582B0154B1C5C154EC1B2154D009533002200144800F00FFF335D295D134A1155DB2B03D8DB08114A135514E0EC2B03D81B090E4A13550EE0F42B03D85B0914
:400BC0000B4A135508E0F92B03D89B09084A135502E00022064B1A5502B070BDC41D0000F4010020E001002024020020E8010020F0010020024A136840218B4313607047D9
:400C000004000840044A1168044B0B40802189000B4313607047C04608000840FFFCFFFC70B5002308E00D49CA5C55080C4CE55401325208CA54013302789342F3D30F205C
:400C400000F034F9074A1168074B0B4007490B4313600F2000F020F970BDC046D0010020D401002008000840FFFCFFFC0002000170B5204B01221A705A709A701732DA8091
:400C80001D4A9A801D4A9A60FFF7B4FF002304E099001B481B4A88500133164A52789342F6D3002306E00421174AD1540239174AD1540133002BF6D0FFF7A4FF144D0D4C80
:400CC0002900200000F05AFD200000F068FD2900200000F053FD200000F082FD2000FFF79FFF002403E02000FFF74AFF0134002CF9D070BD24020020CC040000DC1D000057
:400D00000000FF0FC4000020CC010020DC0100209A0D000004230370427813224270827800228270427C0B224274827C002282747047C046F0B50378042BFCD1002308E04C
:400D40002E4AD15CC21811732D49C95C51730133DBB2002BF4D0002308E02A4AD15CC21891732949C95CD1730133DBB2002BF4D000210FE00C008B00244A9A58920D002383
:400D800002E00133DBB25208002AFAD1021913740131C9B20029EDD000230BE01C4AD15CC21811711B49C95C51711B49C95C91710133DBB2002BF1D0002219E05500174BBA
:400DC000E95A4319FF2426000E401F7A1E72090A5E7A59721249695A0C409D7A9C72090ADC7AD9720F4B995C8318D9710132D2B2002AE3D084230370F0BDC046D001002015
:400E0000D4010020CC010020DC010020C4000020F4010020E0010020F0010020780100208001002088010020034A1368802109060B4313607047C04600000240024A1368E6
:400E40005B005B081360704700000240034A13681B0C1B04034313607047C04600000240034A1368802109060B4313607047C04640000240024A13685B005B08136070475B
:400E800040000240034A13681B0C1B04034313607047C046400002401F2318401E3B8340014A13607047C04600E100E01F2318401E3B8340014A13607047C04680E100E046
:400EC00001BE704770B504000D001F2802D90020FFF7F6FF1034A40080239B059C4664442068256070BDC04670B504000E00032902D90020FFF7E4FF1F2C02D90020FFF7B1
:400F0000DFFF03252540ED00063500F00FFCA408A400074B9C46644421680323AB4099430B003100A9401943216000F003FC70BD00E400E010B5034B1B7B584300F0ECFB84
:400F400010BDC046DC000020F0B557464E46C0B483B0040000F0EAFB0190E71E2D2F74D83F4B1B78DBB29C4208D83E4B1B78DBB29A463D4B1B78DBB2994631E03B4B1B786C
:400F8000DBB29C4208D83A4B1B78DBB29A46394B1B78DBB2994623E0374B1B78DBB29C4208D8364B1B78DBB29A46354B1B78DBB2994615E0334B1B78DBB29C4208D8324BAD
:400FC0001B78DBB29A46314B1B78DBB2994607E02F4B1B78DBB29A462E4B1B78DBB299462D4BDE5D2F2E09D92A2C07D919222B4B1A60052000F090FB192503E0274B1D6892
:401000003F231D40B54206D9234BDA5D234B1A60052000F081FB1F4B9C4664442378DBB21F4A13601F4B52461A601F4B4A461A600520FFF77FFFB5420AD2174BDA5D174BAE
:401040001A60052000F068FB02E00020FFF738FF019800F06FFB03B00CBC91469A46F0BDC0F1FF0FC1F1FF0FC2F1FF0FC3F1FF0FC4F1FF0FC5F1FF0FC6F1FF0FC7F1FF0F69
:40108000C8F1FF0FC9F1FF0FCAF1FF0FCBF1FF0FCCF1FF0FCDF1FF0F481E00002CFF0B4028FF0B401CFF0B4020FF0B40034B1868C0231B02184000D00120704700010B403F
:4010C00010B500F033FB044A1368C02109020B43136000F02FFB10BD00010B4010B500F025FB08490A68084B1A408024E40122430A600A6813408022120213430B6000F09B
:4011000019FB10BD00010B40FF3FFFFF70B5050000F00CFB0400FFF7C9FF002803D0FFF7DDFF012100E0002108482840084A1568084B2B40184310601368012901D1FFF7F6
:40114000BFFF200000F0F6FA70BDC0460404040010020B40FBFBFBFF10B5244B1B685B0715D5234B1B685B070ED5224BD969042001401F4C22688A432260DA698243DA6151
:401180001B69002B00D098470420FFF7BFFF174B1B685B0518D5164B1B685B0510D5154BD9698022D2001140114802688A430260D969114A0A40DA615B69002B00D0984785
:4011C0008020C000FFF7A2FF084B1B685B030CD5074B1B685B0304D5064B9B69002B00D098478020C002FFF791FF10BD10020B40F000002094010020FFFBFFFF044A136810
:40120000DBB201218B430840184310607047C0460001044010B50B20FFF73EFE10BDC04610B500F03BF810BD10B5044A1368802109060B431360FFF7EDFF10BD000007407D
:4012400010B5064B1B78002B04D1FFF7E9FF0122024B1A70FFF7E8FF10BDC046B40100200A4B1B68DB050DD5094B1B685B0409D4064B1968074A0A401A601A688021490068
:401280000A431A600222044B1A6070470000074060000740FFFEFFFF6C00074010B500241C4B1C601C4A1D4B1A601D4A11680C230B4313601B4B1C4A13601C4A14601C49C5
:4012C0001C4A11601C4A13601C4B1C600B20FFF7EDFD03210B20FFF707FE19490B20FFF7F1FD184B1C60184B1C605222FF32174B1A60174B1C60174B1C60174B1C60503A32
:40130000FF3A164B1A70164B1C70164B1C80164B1C8010BD000007400008004060000740700007400701008000030740040307401000FE00100307400002074004020740CA
:40134000C1130000C80E0740880E0740480F0740080F0740C80F0740880F0740380200203C020020360200203402002010B50B20FFF79CFD054B1C78E4B21A781F218A43A9
:401380001A700B20FFF788FD200010BD3C02002070B506000D00141E0BD00B20FFF786FD044B1C60044B1E80044B1D800B20FFF773FD70BD40020020440200203A02002043
:4013C00070B5B54B1B68002B00D09847B34B1C88B34B1D68B34B1E680223FF331D4243D0B14A13685B005B081360B04B1B789B0620D5AE4A137820218B431370117810235D
:401400000B43DBB21370AA4B1B68DB060CD4A34B1A88A84B1B889A420CD0A44A117808230B43DBB2137005E0A04A117802230B43DBB21370A04A1168A04B0B40136000232D
:401440009F4A13609A4A13609E4A9F4B1A609F4A934B1A6002229E4B1A70934A1368802109060B43136014E1F30602D50022994B1A600A23334200D1A1E0974B1B685B07CC
:4014800067D5964B1A68924B1B78012B04D0002B21D0022B15D055E0914B1B88002B0DD00121904B1960904B1B681B19D2B21A7001348B4A1388013B138046E0FFF7D0FEBF
:4014C00043E00121874B1960D2B2854B1A8000227F4B1A7039E0824B1B881B021A43834B1B889A422BD201217E4B1960804B1B889A4202D29B1A9BB200E0002378490B80D8
:40150000072B03D80121724B197014E0082B09D169490B68A020000203430B600021684B196008E064490B688020800103430B600821634B19605F4B1A80140005E0FFF7F3
:401540008FFE02E00020FFF7BBFC04225E4B1A6035E0594B1B689B0431D5B3070DD5654B1B680F211940544A1068544B03401360012014E00821012011E0594B198808396C
:4015800089B219800829F5D8002008E0564B1B681B19524A1268D2B21A70013401390029F4D1002808D1444A1368802109020B4313600022424B1A600C22434B1A60B307E8
:4015C00046D5EB0615D500233D4A1360384A1360384B1B889C4201D1022300E00A232B40324A11780B4320218B4313700222384B1A706B062AD52D4A117820230B43DBB2CC
:4016000013702C4B1B881C003B4A1268D20612D5364A1288D31A324A1380384B1A68802149020A431A601968354A0A401A6010221F4B1A6002E00422214B1A600123314AFE
:4016400013602249164A1160264A1360144B1D60144B1B685B071CD5214B1B88002B0CD0214B1B681B191B78DBB2274A136001341B4A1388013B138002E0FF22224B1A609C
:40168000224B1B680F221340082BE5D10132204B1A60024B1C8070BDB801002036020020400F0740000E0740000007403C020020880F07403402002060000740FF5FFFFFA7
:4016C000C80F0740ED0F0000C00F0740FF0F000038020020880E0740CC0F074040030740BC0100206C00074040020020440200203A020020080307406400074004020740CB
:40170000FFFFFEFF800E07404002074008020740800F0740000000000230800804D0C0460138FDD1C046C046C0467047EFF3108072B6704780F310887047C046F7B59C184C
:401740000023071C08268025019100922370237800982B432370BB689B6C9847019B984202D22378AB432370013E6D08002EEED12378F82B01D9F8232370F7BD70B5051C15
:401780000E1C00242B789C4208D2AB68221C281C311C1B68FFF7D2FF0134F3E770BD38B5051C00242B789C4219D2AA6813681B5DDB080F2B00D90F23D16BD268C95C11554C
:4017C000AA68042B04D9936D906B211C012203E0936D906B211C002298470134E2E738BDF0B5041C002687B063789E4262D2A3685A6C925D0392002A01D1013203921A6CB1
:40180000925D019201992278914251D29A689B69515C0F221140B2000492002205910499019D5A50019B5B000293039B019A9B189D423DD2A768E388A0885843FB68595D26
:4018400000F060F93B68595D00F0D2F8059B5843194B40005A2802D95B084008FAE7BA6904991B0C1B045350A36882085B6B01215855A368C008DB69029F5A550F22A368CE
:4018800049421B6A5855A3685B6A5A55A368986AC1530021D86AC153186B9B68C1535B19197801350A401A703B1C02330293BCE7013699E707B0F0BD0000FFFFF0B585683C
:4018C0004E002B6B925B9B191C8887B0141B0094AC6A1A80A45B6B6A0294EC6A5F5CA45B2B6A03946C6B7F00645C5B180494AC680193645C1B780594009CE40FA4460F240E
:40190000251C6744009C3D40AC46E51764196C409C4203D2012B05D0013B00E00133FF273F2B00D89F00019D2B7065460F2D29D0002D24D0BC4225D8059C029F2409009448
:40194000974200D9171C039D954200D2151C009A092A01D8141C01343A1C0A2C14D1EA1B934206D9049A92089A42924152429B1A00E001338268D26953543A1C04E0151C58
:40198000644601E0151C00246746836824015B6A5F5483689F6ABA53DA6A9B6895530F225B181D782A401A7083689B6859180B781C430C7007B0F0BD70B58068446BC069AF
:4019C000655C405CFF213F2801D88100C9B246B2FF24002E01DB4000C4B28D4201D9291C6C08012081439954049B9C5470BD0000002243088B4274D303098B425FD3030ACA
:401A00008B4244D3030B8B4228D3030C8B420DD3FF22090212BA030C8B4202D31212090265D0030B8B4219D300E0090AC30B8B4201D3CB03C01A5241830B8B4201D38B0302
:401A4000C01A5241430B8B4201D34B03C01A5241030B8B4201D30B03C01A5241C30A8B4201D3CB02C01A5241830A8B4201D38B02C01A5241430A8B4201D34B02C01A5241AD
:401A8000030A8B4201D30B02C01A5241CDD2C3098B4201D3CB01C01A524183098B4201D38B01C01A524143098B4201D34B01C01A524103098B4201D30B01C01A5241C308FC
:401AC0008B4201D3CB00C01A524183088B4201D38B00C01A524143088B4201D34B00C01A5241411A00D20146524110467047FFE701B5002000F0F0F802BDC0460029F7D0E8
:401B000076E7704703460B437FD4002243088B4274D303098B425FD3030A8B4244D3030B8B4228D3030C8B420DD3FF22090212BA030C8B4202D31212090265D0030B8B42B0
:401B400019D300E0090AC30B8B4201D3CB03C01A5241830B8B4201D38B03C01A5241430B8B4201D34B03C01A5241030B8B4201D30B03C01A5241C30A8B4201D3CB02C01AC9
:401B80005241830A8B4201D38B02C01A5241430A8B4201D34B02C01A5241030A8B4201D30B02C01A5241CDD2C3098B4201D3CB01C01A524183098B4201D38B01C01A52412F
:401BC00043098B4201D34B01C01A524103098B4201D30B01C01A5241C3088B4201D3CB00C01A524183088B4201D38B00C01A524143088B4201D34B00C01A5241411A00D280
:401C000001465241104670475DE0CA0F00D04942031000D34042534000229C4603098B422DD3030A8B4212D3FC22890112BA030A8B420CD3890192118B4208D38901921186
:401C40008B4204D389013AD0921100E08909C3098B4201D3CB01C01A524183098B4201D38B01C01A524143098B4201D34B01C01A524103098B4201D30B01C01A5241C308B4
:401C80008B4201D3CB00C01A524183088B4201D38B00C01A5241D9D243088B4201D34B00C01A5241411A00D20146634652415B10104601D34042002B00D549427047634626
:401CC0005B1000D3404201B5002000F005F802BD0029F8D016E770477047C046014B18687047C046540100200E4B70B500251E000D4CE41AA410A54204D0AB00F3589847E6
:401D00000135F8E700F0B8F8084B00251E00084CE41AA410A54204D0AB00F35898470135F8E770BD841E0000841E0000841E00008C1E000003008218934202D019700133EF
:401D4000FAE770470000000000300F40000400400F40000438803E4058045F011801B4016C407008DC036102A102B448B502D802EC08000004300F4001310F4001330F40E4
:401D800003420F4006430F4008000440080104400802044008030440080404400000014004000140080001400C0001401000014000000440000104400002044000030440EE
:401DC00000040440000000000400000010000000030000000100000000000000D0010020D4010020D8000020CC010020DC010020C41D0000C4000020180200200C0200208E
:401E00001002002020020020140200201C02002030020020C4010020381E0000D81D0000D41D0000E90600003105000025040000F5040000C106000001010102020202042A
:401E40000404040404040404030405060708090A0B0C0E0F101112131415161718191B1C1D1E1F2021222325262728292A2B2E2F3031323334354300F8B5C046F8BC08BCE4
:401E80009E467047C101000015030000F8B5C046F8BC08BC9E46704799010000B01E0000C000002098000000F000000000000000000000000000FF0F0100000008030440B9
:401EC000050000001E01000002000000010000000000E02EC05D00001800000000366E010404040000000000000000000000000000000000000000000000000000000000C7
:401F000000000000761E000000000000000000000000000000000000000000000000000000000000000000000000000000000000000000000000000000000000000000000D
:401F400000000000F400002000000000000000000000000000000000000000000000000000000000000000000000000000000000000000000000000000000000000000004D
:401F80000000000000000000000000000000000000000000000000000000000000000000000000000000000000000000000000000000000000000000000000000000000021
:401FC00000000000000000000000000000000000000000000000000000000000000000000000000000000000000000000000000000000000000000000000000000000000E1
:4020000000000000000000000000000000000000000000000000000000000000000000000000000000000000000000000000000000000000000000000000000000000000A0
:402040000000000000000000000000000000000000000000000000000000000000000000000000000000000000000000000000000000000000000000000000000000000060
:0200000490303A
:0200000018A046
:0200000490402A
:200000000000000000000000000000000000000000000000000000000000000000000000E0
:0200000490501A
:0C000000000204C81193110104D22A333D
:0200000490600A
:0100000001FE
:00000001FF