:400000000010002011000000B9020000B902000010B500F059F9C04670B5164C23688022D20213432360182000F0F8F92268124B13402360114A124B1A602022114B1A607B
:40004000103A114B1A6082221206104B1A6000252560802212060E4B1A600E4A0E4B1A600E49092000F080F9092000F071F90C4B1D6070BD00010B40FFFFFBFF0600008036
:4000800004010B401C0202402002024008010B400000024014000080400002402D0600000C020B4010B572B600240FE028486200131959000B00411889881A5AC3185888F9
:4000C0000004104300F0D8F80134E4B2012CEDD91F4801000C31203000F0B4F8C02292011C4B1A60EE2212021B4B1A6099231B041A4A1360A8214903194A1160194A1360CF
:40010000194A1360194A1360194A117806230B43DBB213700C22174B1A60D8231B01164A13604021154A1160C0214903144A1160012214490A6014481449086014490A60AD
:40014000144A1360FFF768FF00F0ACF810BDC046C00F0000000001400C00014000500F4008500F4010500F4020500F4030500F4000700F4000000440080004400001044076
:400180000801044000020440B06DDB0008020440180204400803044010B5064C2378002B07D1054B002B02D0044800E000BF0123237010BD4001002000000000B80F000020
:4001C000084B10B5002B03D00749084800E000BF07480368002B00D110BD064B002BFBD09847F9E70000000044010020B80F0000C00000200000000010B562B600F0CCFA82
:4002000000F064FB00F072FB00F0C6FC002000F077FB0100002000F089FB04000021002000F0CAFCA0B200F0E5FC054800F05AFC200000F05DFA0021012000F0BDFCE5E77A
:40024000BC0F0000F0B50025002711E0BB00C658F3B2FF22964308E06A008A181478A419527822700135013BDBB2002BF4D10137032FEBD9F0BDC04610B50A00002100F010
:4002800093FE10BD064B1B68002803D080221206134301E05B005B08014A13607047C04680031A4010B50122024B1A600120FFF7E9FF10BD00031A4010B500F049FE0368CB
:4002C0000C2B00D1FEE7FEE770B50F4E0F4D13E029686B68AC68002202E001C901C30432A242FAD1E868002202E0002102C304328242FAD11035013E002EE9D100F02EFEE5
:40030000FFF77AFFFEE7C046010000004410000010B500230AE0032B03D89A000949505800E009489900094A885001332F2BF2D9FFF7B8FE8022D205116801230B431360CE
:4003400010BDC04600000000B9020000000000201F2318401E3B8340014A13607047C04600E100E001BE704770B504000D001F2802D90020FFF7F6FF1034A40080239B05D9
:400380009C4664442068256070BDC04670B504000E00032902D90020FFF7E4FF1F2C02D90020FFF7DFFF03252540ED00063500F051FCA408A400074B9C4664442168032355
:4003C000AB4099430B003100A9401943216000F045FC70BD00E400E010B5040006E0084B586800F02DFC074B9C46644480231B029C42F4D8024B9868604300F021FC10BD27
:40040000C40000200080FFFF10B5034B1B7B584300F016FC10BDC046C4000020F0B557464E46C0B483B0040000F014FC0190E71E2D2F74D83F4B1B78DBB29C4208D83E4BAD
:400440001B78DBB29A463D4B1B78DBB2994631E03B4B1B78DBB29C4208D83A4B1B78DBB29A46394B1B78DBB2994623E0374B1B78DBB29C4208D8364B1B78DBB29A46354B14
:400480001B78DBB2994615E0334B1B78DBB29C4208D8324B1B78DBB29A46314B1B78DBB2994607E02F4B1B78DBB29A462E4B1B78DBB299462D4BDE5D2F2E09D92A2C07D9F3
:4004C00019222B4B1A60052000F0BAFB192503E0274B1D683F231D40B54206D9234BDA5D234B1A60052000F0ABFB1F4B9C4664442378DBB21F4A13601F4B52461A601F4B34
:400500004A461A600520FFF77FFFB5420AD2174BDA5D174B1A60052000F092FB02E00020FFF720FF019800F099FB03B00CBC91469A46F0BDC0F1FF0FC1F1FF0FC2F1FF0FDB
:40054000C3F1FF0FC4F1FF0FC5F1FF0FC6F1FF0FC7F1FF0FC8F1FF0FC9F1FF0FCAF1FF0FCBF1FF0FCCF1FF0FCDF1FF0FF00F00002CFF0B4028FF0B401CFF0B4020FF0B4037
:40058000034B1868C0231B02184000D00120704700010B4010B500F05DFB044A1368C02109020B43136000F059FB10BD00010B4010B500F04FFB08490A68084B1A4080242E
:4005C000E40122430A600A6813408022120213430B6000F043FB10BD00010B40FF3FFFFF70B5050000F036FB0400FFF7C9FF002803D0FFF7DDFF012100E0002108482840D3
:40060000084A1568084B2B40184310601368012901D1FFF7BFFF200000F020FB70BDC0460404040010020B40FBFBFBFF10B5244B1B685B0715D5234B1B685B070ED5224BDA
:40064000D969042001401F4C22688A432260DA698243DA611B69002B00D098470420FFF7BFFF174B1B685B0518D5164B1B685B0510D5154BD9698022D20011401148026891
:400680008A430260D969114A0A40DA615B69002B00D098478020C000FFF7A2FF084B1B685B030CD5074B1B685B0304D5064B9B69002B00D098478020C002FFF791FF10BD4F
:4006C00010020B40D80000205C010020FFFBFFFF0004000C014B18607047C046080105400004000C014B18607047C046140105400004000C014B18607047C0460C01054083
:4007000070B504000D0000F0A5FAAC40024B1C6000F0A4FA70BDC0460800054010B500F099FA064A116801230B43136000F096FA18210120FFF7E4FF10BDC0460000054070
:40074000014B18607047C0463801054010B50D4C8023DB042360236823600020FFF7B8FF236823600C22084B1A600120FFF7E8FF3122064B1A600648FFF7B2FF0548FFF71F
:40078000B7FF10BD000105402401054028010540102700008813000010B5064B1B78002B04D1FFF7D3FF0122024B1A70FFF7B6FF10BDC0467C01002010B503210E20FFF733
:4007C000E5FD21490E20FFF7CFFD01221F4B1A601F4B1B68002B01DA1E4900E01E491F4A13680B4313601E4A1E4B1A601E4A1F4B1A6000231E4A13601E4A1F490A601F4939
:400800000A601F4A13601F4A136001331E4A136002211E4A11601E4908681E4A024013430B6000230DE09A001B4951188020C0000860580000241949445219481949505033
:400840000133002BEFD010BD8909000020001A4080031A40400E1053400E005300001A40D800008004001A400000FF0718001A401C001A400400040010001A4014001A4074
:4008800028021A4038021A4018021A40000F1A4030001A40FFFFFFDF80001A4084010020204E00008001002010B5074B1B68002B08DB054A1368802109060B4313600A2042
:4008C000FFF7A2FD10BDC04600001A4010B5064B1B78002B04D1FFF76FFF0122024B1A70FFF7E2FF10BDC0467D010020034A1368802149020B4313607047C04604001A4057
:4009000010B5041E02D00020FFF72CFD002C07D1A400054B9C46644420680004000C00E0002000B210BDC04680011A4070B504000D00002802D00020FFF714FD63000F4A32
:40094000995A09B2691A09B20D484843002906DDA3000C4A9A58D30F9A18531006E0A300084A9A58D30F9A18521053421818A400044BE15800F000FA00B270BD840100209B
:400980001027000080010020014B1A681A60704710021A4010B50C4C2268C0218A4322602268A2398A43226021684300DBB220221343D8B2084320600120FFF725FD23685F
:4009C00020229343236010BD0002044070B505000F4C226840231343236023688022934323600020FFF710FD23681E229343236021686D00EBB220221343D8B208432060B1
:400A00000120FFF701FD236820229343236070BD00020440F8B5274B1A68FE218A431A6025490868254A0240254802430A601A6840218A431A60196880220A431A60CA2751
:400A40007F000020FFF7E0FC1A4C23682026334323600120FFF7D8FC1A4B1D682368B34323600020FFF7D0FC10231D402368334323600120FFF7C8FC2368B3432360002DFA
:400A800002D10A20FFF7C0FC013F002D01D0002FD7D1084B1A6880218A431A601A687E318A431A60044A1168044B0B4006490B431360F8BD00020440080204400780FFFFFE
:400AC0004812000004020440B06D000010B50400FFF7A0FF2009FFF779FF0F202040FFF775FF10BD70B505000078012404E0FFF7EDFF285D0134E4B20028F8D170BDC04679
:400B000010B50400FFF786FF2009FFF743FF0F202040FFF73FFF10BD10B52820FFF75CFC0320FFF737FF0520FFF756FC0320FFF731FF0F20FFF750FC0320FFF72BFF01204B
:400B4000FFF74AFC0220FFF725FF0520FFF744FC0620FFF7D5FF0E20FFF7D2FF2C20FFF7CFFF0820FFF7CCFF0120FFF7C9FF0C20FFF7C6FF0320FFF7C3FF0520FFF72CFCE0
:400B800010BDC04610B50C20FFF7BAFF0122014B1A7010BD7E01002010B5064B5B78002B04D1FFF7B9FF0122024B5A70FFF7EAFF10BDC0467E01002010B501280BD000284A
:400BC00004D002280CD003280FD012E08039C8B2FFF796FF0DE04039C8B2FFF791FF08E06C39C8B2FFF78CFF03E02C39C8B2FFF787FF10BD30B585B00400002201AB9A7270
:400C000009250EE00A21200000F0B2F8C9B2303101AB59550A21200000F024F80400013DEDB2092CEED80A21200000F0A1F8C9B2303101A841554019FFF754FF05B030BD17
:400C40000230800804D0C0460138FDD1C046C046C0467047EFF3108072B6704780F310887047C046002243088B4274D303098B425FD3030A8B4244D3030B8B4228D3030C95
:400C80008B420DD3FF22090212BA030C8B4202D31212090265D0030B8B4219D300E0090AC30B8B4201D3CB03C01A5241830B8B4201D38B03C01A5241430B8B4201D34B03AF
:400CC000C01A5241030B8B4201D30B03C01A5241C30A8B4201D3CB02C01A5241830A8B4201D38B02C01A5241430A8B4201D34B02C01A5241030A8B4201D30B02C01A5241BD
:400D0000CDD2C3098B4201D3CB01C01A524183098B4201D38B01C01A524143098B4201D34B01C01A524103098B4201D30B01C01A5241C3088B4201D3CB00C01A524183084D
:400D40008B4201D38B00C01A524143088B4201D34B00C01A5241411A00D20146524110467047FFE701B5002000F0F0F802BDC0460029F7D076E7704703460B437FD40022B9
:400D800043088B4274D303098B425FD3030A8B4244D3030B8B4228D3030C8B420DD3FF22090212BA030C8B4202D31212090265D0030B8B4219D300E0090AC30B8B4201D310
:400DC000CB03C01A5241830B8B4201D38B03C01A5241430B8B4201D34B03C01A5241030B8B4201D30B03C01A5241C30A8B4201D3CB02C01A5241830A8B4201D38B02C01A7D
:400E00005241430A8B4201D34B02C01A5241030A8B4201D30B02C01A5241CDD2C3098B4201D3CB01C01A524183098B4201D38B01C01A524143098B4201D34B01C01A52413E
:400E400003098B4201D30B01C01A5241C3088B4201D3CB00C01A524183088B4201D38B00C01A524143088B4201D34B00C01A5241411A00D201465241104670475DE0CA0FB6
:400E800000D04942031000D34042534000229C4603098B422DD3030A8B4212D3FC22890112BA030A8B420CD3890192118B4208D3890192118B4204D389013AD0921100E056
:400EC0008909C3098B4201D3CB01C01A524183098B4201D38B01C01A524143098B4201D34B01C01A524103098B4201D30B01C01A5241C3088B4201D3CB00C01A5241830899
:400F00008B4201D38B00C01A5241D9D243088B4201D34B00C01A5241411A00D20146634652415B10104601D34042002B00D54942704763465B1000D3404201B5002000F091
:400F400005F802BD0029F8D016E770477047C046014B18687047C0463C0100200E4B70B500251E000D4CE41AA410A54204D0AB00F35898470135F8E700F052F8084B00254A
:400F80001E00084CE41AA410A54204D0AB00F35898470135F8E770BD2C1000002C1000002C1000003410000003008218934202D019700133FAE77047000000006D762000A7
:400FC00000300F40000400400F400004E2805304D4208B04970820028801C808E201000001330F4002400F4002410F4004430F40030405060708090A0B0C0E0F10111213B8
:401000001415161718191B1C1D1E1F2021222325262728292A2B2E2F3031323334354300F8B5C046F8BC08BC9E467047C101000011030000F8B5C046F8BC08BC9E467047C9
:401040009901000058100000C000002080000000480000000000000000000000010000000000E02EC05D00001800000000366E0104040400000000000000000000000000D1
:4010800000000000000000000000000000000000000000001E1000000000000000000000000000000000000000000000000000000000000000000000000000000000000002
:4010C0000000000000000000000000000000000000000000DC00002000000000000000000000000000000000000000000000000000000000000000000000000000000000F4
:4011000000000000000000000000000000000000000000000000000000000000000000000000000000000000000000000000000000000000000000000000000000000000AF
:40114000000000000000000000000000000000000000000000000000000000000000000000000000000000000000000000000000000000000000000000000000000000006F
:40118000000000000000000000000000000000000000000000000000000000000000000000000000000000000000000000000000000000000000000000000000000000002F
:4011C00000000000000000000000000000000000000000000000000000000000000000000000000000000000000000000000000000000000000000000000000000000000EF
:0200000490303A
:020000009076F8
:0200000490402A
:200000000000000000000000000000000000000000000000000000000000000000000000E0
:0200000490501A
:0C000000000204C81193110104CDA209F4
:0200000490600A
:0100000001FE
:00000001FF