:400000000010002011000000A5020000A502000010B500F04FF9C04670B5164C23688022D20213432360182000F09CFE2268124B13402360114A124B1A602022114B1A6004
:40004000103A114B1A6080221206104B1A60002525600F4A0F4B1A600F4A104B1A601049092000F025FE092000F00CFE0D4B1D6070BDC04600010B40FFFFFBFF0600008042
:4000800004010B40140202401802024008010B40FE00008000000240FE0000C040000240750F00000C020B4010B572B600240FE024486200131959000B00411889881A5ACF
:4000C000C31858880004104300F0C0F80134E4B2012CEDD91B4801000C312C3000F09CF8EE221202184B1A6099231B04174A1360174A136080229205164B1A6016490B788D
:400100003C22934314221343DBB20B70134A117816230B43DBB213700622114B1A601023104A1360D82109010F4A11600F4A13600C3B0F4A13600F4A1360FFF76DFF00F0B2
:40014000ABF810BD601600000C00014010500F4030500F4038500F4001700F4000700F4008010440000304400803044018030440000404401804044010B5064C2378002BB1
:4001800007D1054B002B02D0044800E000BF0123237010BD58010020000000005C160000084B10B5002B03D00749084800E000BF07480368002B00D110BD064B002BFBD0A1
:4001C0009847F9E7000000005C0100205C160000C00000200000000010B562B600F0A6FA00F0EAFA00F006FA002400F007F900280DD100F03FFBC0B2002804D1643000F009
:400200008FFDE443E4B200F0DBFB00F0F3F9200000F002FFE9E7C046F0B50025002711E0BB00C658F3B2FF22964308E06A008A181478A419527822700135013BDBB2002BCF
:40024000F4D10137042FEBD9F0BDC04610B50A00002101F0FBF910BD0C4B1B68002803D080221206134301E05B005B08074A1360074B1B68002803D080229204134301E0AE
:40028000044A1340024A13607047C04680031A4008010B40FFFFFFFD10B50120FFF7DCFF10BDC04610B501F0A5F903680C2B00D1FEE7FEE770B50F4E0F4D13E029686B68A6
:4002C000AC68002202E001C901C30432A242FAD1E868002202E0002102C304328242FAD11035013E002EE9D101F08AF9FFF774FFFEE7C04601000000B417000010B500238C
:400300000AE0032B03D89A000949505800E009489900094A885001332F2BF2D9FFF7C4FE8022D205116801230B43136010BDC04600000000A50200000000002070B516483C
:400340000368DBB2154A13700F24A3431900144D2B780F2213400B43E13293432A78A243134303600F4A104B1A60104A104B1A60104A1168104B0B40C021C9000B43136031
:400380000F2000F089FC0D490F2000F091FC03210F2000F09FFC70BD00FF0840B401002062F1FF0F00020001080008400008A0010400084010000140FFF0FFFFE50900009B
:4003C00010B500F04DFC00F02FFC0021002000F033FC0021002000F04BFC00F037FC00F019FC044A136804490B4313600F2000F049FC10BD0400084000100880024B18781B
:40040000012318407047C046740100204000024B181880887047C0467401002070B500F011FE08490A68084B13408022D2021343064C2568064A2A4022600B6000F006FE04
:4004400070BDC0460C000140FFFFF0FF08030440FF8FFFFF10B5104B1A5C10490868104B03400B60022A00D10022012A01D1002400E0062400F0E6FD0A490A680A4B134042
:40048000220313430B6000F0E1FD084A136810218B43136010BDC046CC0100200C000140FFFFF0FF08030440FF8FFFFF0003044010B5002403E02000FFF7CCFF0134002C1F
:4004C000F9D010BD044A11684002C023DB001840084310607047C04604000840CA0807231940063B8B40825C134201D0012000E00020704710B504000134E4B2012C06D0AF
:40050000210004480430FFF7E9FF0028F4D0200010BDC046C4000020F8B50400214B1E6801002148FFF7DAFF204B9E4203D88640FF231B041E431E4B185D013880B20021A5
:4005400000F07AFB1B4B185D013880B2002100F08FFB0F2000F0A0FB17480168174B1940174B1B5D174A125D120413430B430360154F3D68154B1D40154B1D430F2000F08C
:4005800081FB2000FFF74AFF00F05CFD04003D60002000F04DFD0F4B1E60200000F056FDF8BDC046C4000020B8010020FFFFFEFFD0010020C00100200800084000FF80FFCE
:4005C000C4010020C801002004000840FF1FDFFF200020000C00084010B5054B00221A70C2B29A7181221A70FFF796FF10BDC0467401002010B50B4C00232370FF33A371D9
:40060000A079C0B2FFF776FFA071A379002B08D1217801230B43DBB22370A079C0B2FFF77BFF10BD7401002070B50500154B1C68A4B24300144AD3189C80144B1A68144BBF
:400640009A4208D801001348FFF748FF6B000E4AD31804419C802800FFF7FCFE0F2000F01BFB0D4A11680D4B0B40A02109020B4313600B4A11680B4B0B4013600F2000F0C8
:4006800001FB70BD0C00084074010020C4000020FFFFFEFFB801002004000840FF1FDFFF0800084000FF80FF10B5CC0807231940063B8B40DBB2002A04D00419227813439A
:4006C000237003E0041922789A43227010BDC04670B50600002400250BE03000FFF77CFFFFF78CFE0128FBD03000FFF78FFE24180135002DF1D0A0B270BDC046014B1954C6
:400700007047C046CC01002010B5002404E000212000FFF7F3FF0134002CF8D0FFF70EFE0020FFF7CFFEFFF7C3FE10BD10B50B4BDB79002B04D1FFF7E7FF0122074BDA717C
:40074000FFF73EFE00F014FA0122044B1A72044A13688021C9030B43136010BD740100200400084030B5094B1B5C42000849545A0849545208180025057105720648C05C22
:40078000CB181873054BD45230BDC046DC1600007801002080010020D0000020E001002010B50400FFF718FFFFF728FE0028FBD12000FFF7D7FF10BD10B5002403E02000BA
:4007C000FFF7EEFF0134002CF9D010BDF0B5474680B40400224B1D5C224B5F5D224B5E5D224B5B5D9846010021481030FFF776FE002810D01E4B1B191B7ABE1BB34223DA62
:400800001B4E3000103000222100FFF74DFF751943462B7318E0164B1B191B7ABE19B3420EDB134B5D192B7B013BDBB22B73002B0AD1012221000E481030FFF735FF03E000
:400840000B4B5D1943462B73210009481030FFF745FE002800D0012004BC9046F0BDC046DC160000E8010020E4010020D00000208001002010B50020FFF7A8FF002800D02D
:40088000012010BD401849004018800880B27047F0B5474680B482B004003C4B1E5C3C4B9B5D019342003B4BD75A3B4B5B79002B08D03A4D9046515B3800FFF7E3FF0700BA
:4008C00043465853E1B2334A354800F083FC6300344A9A5A974207D30021334B1955BD1AADB20123984603E0D51BADB2002398464346002B15D12D4B9B5D9D4211D92A4B80
:400900001B5D254A12191279934206D32000FFF729FF0022244B1A551EE00133224A13551AE06B469B889D4206D9204B9B5D9D4212D24346002B0FD113029C461948011970
:400940000B7966463343FF18BF1A3A0A6300C2520F710022144B1A556B469E88B5420DD94346002B0AD0FF2D04D90E4B1C19FF23237207E00B4B1C19257203E0094B1C19B1
:400980000023237202B004BC9046F0BDDC160000D401002078010020D0000020E00100200402002080010020D8010020DC01002010B5040000F064F82000FFF769FF10BDFC
:4009C00010B5002409E021000548FFF787FD002802D02000FFF7ECFF0134002CF3D010BDC800002010B50F2000F056F901221E4B1A601E4B1878C0B2FFF716FE1C4B1B78C1
:400A00005BB2002B05DA1A4A137801218B43137025E0164C2078C0B2FFF76CFD20702378002B05D1114B1878C0B2FFF775FD16E00F4B1A7801218A431A701B785B060ED549
:400A400000220C4B1A7006E00B4AD15C0B4AD1540133084A1370074B1B78002BF4D00F2000F010F910BDC046140008407A0100207401002091010020BC010020C8000020B6
:400A800070B582B0154B1C5C154EC1B2154D009533002200144800F01BFC335D295D134A1155DB2B03D8DB08114A135514E0EC2B03D81B090E4A13550EE0F42B03D85B090C
:400AC0000B4A135508E0F92B03D89B09084A135502E00022064B1A5502B070BDDC160000E8010020D401002004020020DC010020E4010020024A136840218B431360704719
:400B000004000840044A1168044B0B40802189000B4313607047C04608000840FFFCFFFC70B5002308E00D49CA5C55080C4CE55401325208CA54013302789342F3D30F205D
:400B400000F0AAF8074A1168074B0B4007490B4313600F2000F096F870BDC046C4010020C801002008000840FFFCFFFC0002000170B5204B01221A705A709A701732DA80C0
:400B80001D4A9A801D4A9A60FFF7B4FF002304E099001B481B4A88500133164A52789342F6D3002306E00421174AD1540239174AD1540133002BF6D0FFF7A4FF144D0D4C81
:400BC0002900200000F066FA200000F074FA2900200000F05FFA200000F08EFA2000FFF79FFF002403E02000FFF74AFF0134002CF9D070BD04020020CC040000F416000043
:400C00000000FF0FC4000020C0010020D00100209A0D0000034A1368802109060B4313607047C04600000240024A13685B005B081360704700000240034A13681B0C1B0412
:400C4000034313607047C04600000240034A1368802109060B4313607047C04640000240024A13685B005B081360704740000240034A13681B0C1B04034313607047C0468F
:400C8000400002401F2318401E3B8340014A13607047C04600E100E01F2318401E3B8340014A13607047C04680E100E001BE704770B504000D001F2802D90020FFF7F6FF75
:400CC0001034A40080239B059C4664442068256070BDC04670B504000E00032902D90020FFF7E4FF1F2C02D90020FFF7DFFF03252540ED00063500F0A5F9A408A400074BC9
:400D00009C46644421680323AB4099430B003100A9401943216000F099F970BD00E400E010B5040006E0084B586800F081F9074B9C46644480231B029C42F4D8024B98687F
:400D4000604300F075F910BDDC0000200080FFFF10B5034B1B7B584300F06AF910BDC046DC000020F0B557464E46C0B483B0040000F068F90190E71E2D2F74D83F4B1B7898
:400D8000DBB29C4208D83E4B1B78DBB29A463D4B1B78DBB2994631E03B4B1B78DBB29C4208D83A4B1B78DBB29A46394B1B78DBB2994623E0374B1B78DBB29C4208D8364B77
:400DC0001B78DBB29A46354B1B78DBB2994615E0334B1B78DBB29C4208D8324B1B78DBB29A46314B1B78DBB2994607E02F4B1B78DBB29A462E4B1B78DBB299462D4BDE5D9F
:400E00002F2E09D92A2C07D919222B4B1A60052000F00EF9192503E0274B1D683F231D40B54206D9234BDA5D234B1A60052000F0FFF81F4B9C4664442378DBB21F4A1360B8
:400E40001F4B52461A601F4B4A461A600520FFF77FFFB5420AD2174BDA5D174B1A60052000F0E6F802E00020FFF720FF019800F0EDF803B00CBC91469A46F0BDC0F1FF0F8B
:400E8000C1F1FF0FC2F1FF0FC3F1FF0FC4F1FF0FC5F1FF0FC6F1FF0FC7F1FF0FC8F1FF0FC9F1FF0FCAF1FF0FCBF1FF0FCCF1FF0FCDF1FF0F601700002CFF0B4028FF0B40C5
:400EC0001CFF0B4020FF0B40034B1868C0231B02184000D00120704700010B4010B500F0B1F8044A1368C02109020B43136000F0ADF810BD00010B4010B500F0A3F80849E5
:400F00000A68084B1A408024E40122430A600A6813408022120213430B6000F097F810BD00010B40FF3FFFFF70B5050000F08AF80400FFF7C9FF002803D0FFF7DDFF0121DD
:400F400000E0002108482840084A1568084B2B40184310601368012901D1FFF7BFFF200000F074F870BDC0460404040010020B40FBFBFBFF10B5244B1B685B0715D5234BBC
:400F80001B685B070ED5224BD969042001401F4C22688A432260DA698243DA611B69002B00D098470420FFF7BFFF174B1B685B0518D5164B1B685B0510D5154BD9698022F9
:400FC000D2001140114802688A430260D969114A0A40DA615B69002B00D098478020C000FFF7A2FF084B1B685B030CD5074B1B685B0304D5064B9B69002B00D09847802035
:40100000C002FFF791FF10BD10020B40F000002094010020FFFBFFFF044A1368DBB201218B430840184310607047C046000104400230800804D0C0460138FDD1C046C0467F
:40104000C0467047EFF3108072B6704780F310887047C046F7B59C180023071C08268025019100922370237800982B432370BB689B6C9847019B984202D22378AB432370C7
:40108000013E6D08002EEED12378F82B01D9F8232370F7BD70B5051C0E1C00242B789C4208D2AB68221C281C311C1B68FFF7D2FF0134F3E770BD38B5051C00242B789C428B
:4010C00019D2AA6813681B5DDB080F2B00D90F23D16BD268C95C1155AA68042B04D9936D906B211C012203E0936D906B211C002298470134E2E738BDF0B5041C002687B02D
:4011000063789E4262D2A3685A6C925D0392002A01D1013203921A6C925D019201992278914251D29A689B69515C0F221140B2000492002205910499019D5A50019B5B0064
:401140000293039B019A9B189D423DD2A768E388A0885843FB68595D00F060F93B68595D00F0D2F8059B5843194B40005A2802D95B084008FAE7BA6904991B0C1B045350DD
:40118000A36882085B6B01215855A368C008DB69029F5A550F22A36849421B6A5855A3685B6A5A55A368986AC1530021D86AC153186B9B68C1535B19197801350A401A70E5
:4011C0003B1C02330293BCE7013699E707B0F0BD0000FFFFF0B585684E002B6B925B9B191C8887B0141B0094AC6A1A80A45B6B6A0294EC6A5F5CA45B2B6A03946C6B7F00B1
:40120000645C5B180494AC680193645C1B780594009CE40FA4460F24251C6744009C3D40AC46E51764196C409C4203D2012B05D0013B00E00133FF273F2B00D89F00019DDE
:401240002B7065460F2D29D0002D24D0BC4225D8059C029F24090094974200D9171C039D954200D2151C009A092A01D8141C01343A1C0A2C14D1EA1B934206D9049A920808
:401280009A42924152429B1A00E001338268D26953543A1C04E0151C644601E0151C00246746836824015B6A5F5483689F6ABA53DA6A9B6895530F225B181D782A401A7079
:4012C00083689B6859180B781C430C7007B0F0BD70B58068446BC069655C405CFF213F2801D88100C9B246B2FF24002E01DB4000C4B28D4201D9291C6C0801208143995420
:40130000049B9C5470BD0000002243088B4274D303098B425FD3030A8B4244D3030B8B4228D3030C8B420DD3FF22090212BA030C8B4202D31212090265D0030B8B4219D30E
:4013400000E0090AC30B8B4201D3CB03C01A5241830B8B4201D38B03C01A5241430B8B4201D34B03C01A5241030B8B4201D30B03C01A5241C30A8B4201D3CB02C01A52412A
:40138000830A8B4201D38B02C01A5241430A8B4201D34B02C01A5241030A8B4201D30B02C01A5241CDD2C3098B4201D3CB01C01A524183098B4201D38B01C01A524143097E
:4013C0008B4201D34B01C01A524103098B4201D30B01C01A5241C3088B4201D3CB00C01A524183088B4201D38B00C01A524143088B4201D34B00C01A5241411A00D201468D
:40140000524110467047FFE701B5002000F0F0F802BDC0460029F7D076E7704703460B437FD4002243088B4274D303098B425FD3030A8B4244D3030B8B4228D3030C8B4296
:401440000DD3FF22090212BA030C8B4202D31212090265D0030B8B4219D300E0090AC30B8B4201D3CB03C01A5241830B8B4201D38B03C01A5241430B8B4201D34B03C01ADA
:401480005241030B8B4201D30B03C01A5241C30A8B4201D3CB02C01A5241830A8B4201D38B02C01A5241430A8B4201D34B02C01A5241030A8B4201D30B02C01A5241CDD230
:4014C000C3098B4201D3CB01C01A524183098B4201D38B01C01A524143098B4201D34B01C01A524103098B4201D30B01C01A5241C3088B4201D3CB00C01A524183088B4258
:4015000001D38B00C01A524143088B4201D34B00C01A5241411A00D201465241104670475DE0CA0F00D04942031000D34042534000229C4603098B422DD3030A8B4212D31F
:40154000FC22890112BA030A8B420CD3890192118B4208D3890192118B4204D389013AD0921100E08909C3098B4201D3CB01C01A524183098B4201D38B01C01A52414309D7
:401580008B4201D34B01C01A524103098B4201D30B01C01A5241C3088B4201D3CB00C01A524183088B4201D38B00C01A5241D9D243088B4201D34B00C01A5241411A00D267
:4015C0000146634652415B10104601D34042002B00D54942704763465B1000D3404201B5002000F005F802BD0029F8D016E770477047C046014B18687047C04654010020C4
:401600000E4B70B500251E000D4CE41AA410A54204D0AB00F35898470135F8E700F0B8F8084B00251E00084CE41AA410A54204D0AB00F35898470135F8E770BD9C17000078
:401640009C1700009C170000A417000003008218934202D019700133FAE770470000000000300F40000400400F40000438803E4058045F011801B4016C407008DC03610274
:40168000A102B448B502D802EC08000004300F4001310F4001330F4003420F4006430F400800044008010440080204400803044008040440000001400400014008000140FE
:4016C0000C000140100001400000044000010440000204400003044000040440000000000400000010000000030000000100000000000000C4010020C8010020D800002010
:40170000C0010020D0010020DC160000C4000020F8010020EC010020F001002000020020F4010020FC01002010020020B801002050170000F0160000EC160000D106000025
:40174000190500000D040000DD040000A906000001010102020202040404040404040404030405060708090A0B0C0E0F101112131415161718191B1C1D1E1F20212223250A
:40178000262728292A2B2E2F3031323334354300F8B5C046F8BC08BC9E467047A1010000FD020000F8B5C046F8BC08BC9E46704779010000C8170000C00000209800000069
:4017C000C000000000000000000000000000FF0F0100000008030440050000001E01000002000000010000000000E02EC05D00001800000000366E010404040000000000B0
:40180000000000000000000000000000000000000000000000000000000000008E170000000000000000000000000000000000000000000000000000000000000000000003
:4018400000000000000000000000000000000000000000000000000000000000F4000020000000000000000000000000000000000000000000000000000000000000000054
:401880000000000000000000000000000000000000000000000000000000000000000000000000000000000000000000000000000000000000000000000000000000000028
:4018C00000000000000000000000000000000000000000000000000000000000000000000000000000000000000000000000000000000000000000000000000000000000E8
:4019000000000000000000000000000000000000000000000000000000000000000000000000000000000000000000000000000000000000000000000000000000000000A7
:401940000000000000000000000000000000000000000000000000000000000000000000000000000000000000000000000000000000000000000000000000000000000067
:0200000490303A
:02000000EF5FB0
:0200000490402A
:200000000000000000000000000000000000000000000000000000000000000000000000E0
:0200000490501A
:0C000000000204C81193110104D000F2AA
:0200000490600A
:0100000001FE
:00000001FF