:400000000010002011000000B5020000B502000010B500F057F9C04670B5164C23688022D20213432360182000F056FB2268124B13402360114A124B1A601022114B1A6035
:400040001032114B1A6080221206104B1A60002525600F4A0F4B1A600F4A104B1A601049092000F0DFFA092000F0C6FA0D4B1D6070BDC04600010B40FFFFFBFF06000080DE
:4000800004010B400C0202403002024008010B400E00008000000240BF12008040000240E90800000C020B4010B572B600240FE027486200131959000B00411889881A5AAC
:4000C000C31858880004104300F0EEF80134E4B2012CEDD91E490C311E48043000F0CAF81D4A1E4B1A6099231B041D4A13601D4A13601D4A13601D4A1360802212051C4BBD
:400100001A601C490B783C22934314221343DBB20B70194A117816230B43DBB21370D022164B1A60164A174B1A602022164B1A60164A174B1A60174A174B1A607322174B7C
:400140001A60174A174B1A60FFF766FF10BDC0461010000090100000EEEE30000C00014000500F4010500F4020500F4030500F4038500F4001700F4000700F40000004400B
:4001800006204B0008000440000104400600010008010440B06DDB000802044000030440A42DCB000803044010B5064C2378002B07D1054B002B02D0044800E000BF012360
:4001C000237010BD40010020000000000C100000084B10B5002B03D00749084800E000BF07480368002B00D110BD064B002BFBD09847F9E700000000440100200C100000C3
:40020000C00000200000000010B500F01BFE014B587010BD5C01002010B5084B1B780F2B07D9012000F014FE9620400000F032FA02E0002000F00CFE10BDC0465C0100206C
:4002400010B562B600F084F900F0B6FB084A0021032000F047FCFFF7DFFFFFF7D5FF0021002000F085F900F0EDFD00F09FF9F2E75C010020F0B50025002711E0BB00C6580A
:40028000F3B2FF22964308E06A008A181478A419527822700135013BDBB2002BF4D10137052FEBD9F0BDC04610B50A00002100F0A5FE10BD10B500F075FE03680C2B00D149
:4002C000FEE7FEE770B50F4E0F4D13E029686B68AC68002202E001C901C30432A242FAD1E868002202E0002102C304328242FAD11035013E002EE9D100F05AFEFFF7A0FF2C
:40030000FEE7C046010000000011000010B500230AE0032B03D89A000949505800E009489900094A885001332F2BF2D9FFF7BCFE8022D205116801230B43136010BDC046A9
:4003400000000000B50200000000002010B50C4C2268C0218A4322602268A2398A43226021684300DBB220221343D8B208432060012000F0A7F9236820229343236010BD31
:400380000002044070B505000F4C22684023134323602368802293432360002000F092F923681E229343236021686D00EBB220221343D8B208432060012000F083F92368CF
:4003C00020229343236070BD00020440F8B5274B1A68FE218A431A6025490868254A0240254802430A601A6840218A431A60196880220A431A60CA277F00002000F062F94E
:400400001A4C2368202633432360012000F05AF91A4B1D682368B3432360002000F052F910231D40236833432360012000F04AF92368B3432360002D02D10A2000F042F91E
:40044000013F002D01D0002FD7D1084B1A6880218A431A601A687E318A431A60044A1168044B0B4006490B431360F8BD00020440080204400780FFFF48120000040204404F
:40048000B06D000010B50400FFF7A0FF2009FFF779FF0F202040FFF775FF10BD70B505000078012404E0FFF7EDFF285D0134E4B20028F8D170BDC04610B50400FFF786FF1F
:4004C0002009FFF743FF0F202040FFF73FFF10BD10B5282000F0DEF80320FFF737FF052000F0D8F80320FFF731FF0F2000F0D2F80320FFF72BFF012000F0CCF80220FFF7A2
:4005000025FF052000F0C6F80620FFF7D5FF0E20FFF7D2FF2C20FFF7CFFF0820FFF7CCFF0120FFF7C9FF0C20FFF7C6FF0320FFF7C3FF052000F0AEF810BDC04610B50C20C6
:40054000FFF7BAFF0122014B1A7010BD5F01002010B5064B5B78002B04D1FFF7B9FF0122024B5A70FFF7EAFF10BDC0465F01002010B501280BD0002804D002280CD003288D
:400580000FD012E08039C8B2FFF796FF0DE04039C8B2FFF791FF08E06C39C8B2FFF78CFF03E02C39C8B2FFF787FF10BD30B585B00400002201AB9A7209250EE00A21200054
:4005C00000F0EAFCC9B2303101AB59550A21200000F05CFC0400013DEDB2092CEED80A21200000F0D9FCC9B2303101A841554019FFF754FF05B030BD1F2318401E3B83405B
:40060000014A13607047C04600E100E01F2318401E3B8340014A13607047C04680E100E001BE704770B504000D001F2802D90020FFF7F6FF1034A40080239B059C4664447E
:400640002068256070BDC04670B504000E00032902D90020FFF7E4FF1F2C02D90020FFF7DFFF03252540ED00063500F007FCA408A400074B9C46644421680323AB4099439F
:400680000B003100A9401943216000F0FBFB70BD00E400E010B5040006E0084B586800F0E3FB074B9C46644480231B029C42F4D8024B9868604300F0D7FB10BDC400002028
:4006C0000080FFFF10B5034B1B7B584300F0CCFB10BDC046C4000020F0B557464E46C0B483B0040000F0CAFB0190E71E2D2F74D83F4B1B78DBB29C4208D83E4B1B78DBB245
:400700009A463D4B1B78DBB2994631E03B4B1B78DBB29C4208D83A4B1B78DBB29A46394B1B78DBB2994623E0374B1B78DBB29C4208D8364B1B78DBB29A46354B1B78DBB251
:40074000994615E0334B1B78DBB29C4208D8324B1B78DBB29A46314B1B78DBB2994607E02F4B1B78DBB29A462E4B1B78DBB299462D4BDE5D2F2E09D92A2C07D919222B4B9F
:400780001A60052000F070FB192503E0274B1D683F231D40B54206D9234BDA5D234B1A60052000F061FB1F4B9C4664442378DBB21F4A13601F4B52461A601F4B4A461A60AC
:4007C0000520FFF77FFFB5420AD2174BDA5D174B1A60052000F048FB02E00020FFF720FF019800F04FFB03B00CBC91469A46F0BDC0F1FF0FC1F1FF0FC2F1FF0FC3F1FF0FF5
:40080000C4F1FF0FC5F1FF0FC6F1FF0FC7F1FF0FC8F1FF0FC9F1FF0FCAF1FF0FCBF1FF0FCCF1FF0FCDF1FF0FAC1000002CFF0B4028FF0B401CFF0B4020FF0B40034B1868AB
:40084000C0231B02184000D00120704700010B4010B500F013FB044A1368C02109020B43136000F00FFB10BD00010B4010B500F005FB08490A68084B1A408024E4012243CD
:400880000A600A6813408022120213430B6000F0F9FA10BD00010B40FF3FFFFF70B5050000F0ECFA0400FFF7C9FF002803D0FFF7DDFF012100E0002108482840084A156821
:4008C000084B2B40184310601368012901D1FFF7BFFF200000F0D6FA70BDC0460404040010020B40FBFBFBFF10B5244B1B685B0715D5234B1B685B070ED5224BD9690420CC
:4009000001401F4C22688A432260DA698243DA611B69002B00D098470420FFF7BFFF174B1B685B0518D5164B1B685B0510D5154BD9698022D2001140114802688A43026005
:40094000D969114A0A40DA615B69002B00D098478020C000FFF7A2FF084B1B685B030CD5074B1B685B0304D5064B9B69002B00D098478020C002FFF791FF10BD10020B405E
:40098000D800002064010020FFFBFFFF10B50B20FFF732FE10BDC04610B500F03BF810BD10B5044A1368802109060B431360FFF7EDFF10BD0000074010B5064B1B78002B5B
:4009C00004D1FFF7E9FF0122024B1A70FFF7E8FF10BDC046840100200A4B1B68DB050DD5094B1B685B0409D4064B1968074A0A401A601A68802149000A431A600222044BBB
:400A00001A6070470000074060000740FFFEFFFF6C00074010B500241C4B1C601C4A1D4B1A601D4A11680C230B4313601B4B1C4A13601C4A14601C491C4A11601C4A1360D7
:400A40001C4B1C600B20FFF7E1FD03210B20FFF7FBFD19490B20FFF7E5FD184B1C60184B1C605222FF32174B1A60174B1C60174B1C60174B1C60174B1C70174B1C70174BDB
:400A80001C80174B00221A7010BDC046000007400008004060000740700007400701008000030740040307406C00FE00100307400002074004020740150B0000C80E074015
:400AC000880E0740480F0740080F0740C80F0740880F07409401002098010020920100209001002070B506000D00141E0BD00B20FFF78CFD044B1C60044B1E80044B1D80BC
:400B00000B20FFF779FD70BD9C010020A00100209601002070B5AC4B1B68002B00D09847AA4B1C88AA4B1D68AA4B1E680223FF331D4242D0A84A13685B005B081360A74B5D
:400B40001B789B0620D5A54A137820218B431370117810230B43DBB21370A14B1B68DB060CD4A04B1A78994B1B889A420CD09B4A117808230B43DBB2137005E0974A1178F4
:400B800002230B43DBB21370974A1168974B0B4013600023964A1360914A13609549964A116096498A4A1160954A13708A4A1368802109060B43136003E1F30602D50022A9
:400BC000904B1A600A23334200D190E08E4B1B685B0756D58D4B1B68894A1278002A16D0012A47D18A4A1288002A0DD00121894A1160894A12681219DBB213700134844A63
:400C00001388013B138038E0FFF7E6FE35E0834A128893422BD201217E4A1160804A1288934202D2D21A92B200E0002278490A80072A03D80121724A117014E0082A09D1BA
:400C400069490A68A020000202430A600021684A116008E064490A688020800102430A600821634A11605F4A13701C0005E0FFF7B3FE02E00020FFF7D3FC04225E4B1A6099
:400C800035E0594B1B689B0431D5B3070DD5654B1B680F211940544A1068544B03401360012014E00821012011E0594B1988083989B219800829F5D8002008E0564B1B68BC
:400CC0001B19524A1268D2B21A70013401390029F4D1002808D1444A1368802109020B4313600022424B1A600C22434B1A60B30746D5EB0615D500233D4A1360384A1360A7
:400D0000384B1B789C4201D1022300E00A232B40324A11780B4320218B4313700022384B1A706B062AD52D4A117820230B43DBB213702C4B1B781C003B4A1268D20612D547
:400D4000364A1288D31A324A1380384B1A68802149020A431A601968354A0A401A6010221F4B1A6002E00422214B1A600123314A13602249164A1160264A1360144B1D60D0
:400D8000144B1B685B071CD5214B1B88002B0CD0214B1B681B191B78DBB2274A136001341B4A1388013B138002E0FF22224B1A60224B1B680F221340082BE5D10132204BD8
:400DC0001A60024B1C8070BD8801002092010020400F0740000E07400000074098010020880F07409001002060000740FF5FFFFFC80F0740ED0F0000C00F0740FF0F00004C
:400E000094010020880E0740CC0F0740400307408C0100206C0007409C010020A001002096010020080307406400074004020740FFFFFEFF800E07404002074008020740EB
:400E4000800F0740014B1878C0B2704762000F4004490A68D2B220239A4340011840104308607047000104400230800804D0C0460138FDD1C046C046C0467047EFF310805D
:400E800072B6704780F310887047C046002243088B4274D303098B425FD3030A8B4244D3030B8B4228D3030C8B420DD3FF22090212BA030C8B4202D31212090265D0030B61
:400EC0008B4219D300E0090AC30B8B4201D3CB03C01A5241830B8B4201D38B03C01A5241430B8B4201D34B03C01A5241030B8B4201D30B03C01A5241C30A8B4201D3CB0263
:400F0000C01A5241830A8B4201D38B02C01A5241430A8B4201D34B02C01A5241030A8B4201D30B02C01A5241CDD2C3098B4201D3CB01C01A524183098B4201D38B01C01A74
:400F4000524143098B4201D34B01C01A524103098B4201D30B01C01A5241C3088B4201D3CB00C01A524183088B4201D38B00C01A524143088B4201D34B00C01A5241411A4B
:400F800000D20146524110467047FFE701B5002000F006F802BDC0460029F7D076E770477047C046014B18687047C0463C0100200E4B70B500251E000D4CE41AA410A542AF
:400FC00004D0AB00F35898470135F8E700F086F8084B00251E00084CE41AA410A54204D0AB00F35898470135F8E770BDE8100000E8100000E8100000F010000003008218D2
:40100000934202D019700133FAE770470000000000300F40000400400F400004030108080C0214042001300232043401350136083B203E55580459045B045F0105100702AE
:401040000F2015011EAA27043F015EAA8311870289018D108F04C0C0C220C410CE80D6F0E040E60109800A20C2500E10821085808E109220A180C220E080E44008020A0162
:40108000620480028A018E04C20AD802E408E6010101100110320F4014330F4003400F4009410F400A430F4002600F40030405060708090A0B0C0E0F1011121314151617FC
:4010C00018191B1C1D1E1F2021222325262728292A2B2E2F3031323334354300F8B5C046F8BC08BC9E467047D10100000D030000F8B5C046F8BC08BC9E467047A9010000A9
:4011000010110000C0000020800000006800000000000000010000000000E02EC05D00001800000000366E01040404000000000000000000000000000000000000000000D1
:40114000000000000000000000000000DA10000000000000000000000000000000000000000000000000000000000000000000000000000000000000000000000000000085
:40118000000000000000000000000000DC00002000000000000000000000000000000000000000000000000000000000000000000000000000000000000000000000000033
:4011C00000000000000000000000000000000000000000000000000000000000000000000000000000000000000000000000000000000000000000000000000000000000EF
:4012000000000000000000000000000000000000000000000000000000000000000000000000000000000000000000000000000000000000000000000000000000000000AE
:40124000000000000000000000000000000000000000000000000000000000000000000000000000000000000000000000000000000000000000000000000000000000006E
:40128000000000000000000000000000000000000000000000000000000000000000000000000000000000000000000000000000000000000000000000000000000000002E
:0200000490303A
:02000000B2212B
:0200000490402A
:200000000000000000000000000000000000000000000000000000000000000000000000E0
:0200000490501A
:0C000000000204C81193110104CDC3B428
:0200000490600A
:0100000001FE
:00000001FF