:400000000010002011000000ED020000ED02000010B500F073F9C04670B5194C23688022D20213432360182000F064FF2268154B13402360144A154B1A602022144B1A6078
:40004000103A144B1A602032134B1A6080221206124B1A6000252560114A124B1A60124A124B1A60124A134B1A601349092000F0FFFE092000F0E6FE104B1D6070BDC046E5
:4000800000010B40FFFFFBFF0600008004010B4014020240180202403002024008010B40FE00008000000240FE0000C040000240C4EF008080000240051100000C020B4046
:4000C00010B572B600240FE02A486200131959000B00411889881A5AC31858880004104300F0D8F80134E4B2012CEDD9214801000C313C3000F0B4F81F4A204B1A60992375
:400100001B041F4A13601F4A13601F4A1360E02252051E4B1A601E490B783C22934314221343DBB20B701B4A117816230B43DBB213707E23184A1360184A13607D3B184A34
:4001400013600821174A1160174A13602322174B1A60174A174B1A600322174B1A600523164A1360164A1360FFF756FF00F0B8F810BDC046D817000000EE30000C000140F8
:4001800010500F4020500F4030500F4038500F4001700F4000700F40000104401801044000020440080204401802044000030440800D03000803044018030440000404404B
:4001C0001804044010B5064C2378002B07D1054B002B02D0044800E000BF0123237010BD9001002000000000D4170000084B10B5002B03D00749084800E000BF0748036883
:40020000002B00D110BD064B002BFBD09847F9E70000000094010020D4170000C00000200000000010B562B600F0D0FA00F02AFB00F026FA00F010F90028FBD100F068FC72
:40024000FF2318408300C0184300013B98B2002100F098F800F04AFC00F012FAEAE7C046F0B50025002711E0BB00C658F3B2FF22964308E06A008A181478A4195278227043
:400280000135013BDBB2002BF4D10137042FEBD9F0BDC04610B50A00002101F093FA10BD0C4B1B68002803D080221206134301E05B005B08074A1360074B1B68002803D01A
:4002C00080229204134301E0044A1340024A13607047C04680031A4008010B40FFFFFFFD10B50120FFF7DCFF10BDC04610B501F03DFA03680C2B00D1FEE7FEE770B50F4E11
:400300000F4D13E029686B68AC68002202E001C901C30432A242FAD1E868002202E0002102C304328242FAD11035013E002EE9D101F022FAFFF776FFFEE7C04601000000B0
:400340007819000010B500230AE0032B03D89A000949505800E009489900094A885001332F2BF2D9FFF7ACFE8022D205116801230B43136010BDC04600000000ED020000F6
:4003800000000020034A13681B0C1B04034313607047C0468000024070B516480368DBB2154A13700F24A3431900144D2B780F2213400B43E13293432A78A2431343036049
:4003C0000F4A104B1A60104A104B1A60104A1168104B0B40C021C9000B4313600F2000F03BFD0D490F2000F043FD03210F2000F051FD70BD00FF08402002002062F1FF0F08
:4004000000020001080008400008A0010400084010000140FFF0FFFF8D0B000010B500F0FFFC00F0E1FC0021002000F0E5FC0021002000F0FDFC00F0E9FC00F0CBFC044A0B
:40044000136804490B4313600F2000F0FBFC10BD0400084000100880024B1878012318407047C046AC0100204000024B181880887047C046AC010020F8B5104F3E5C381804
:40048000037B5D005D19EDB29B00DCB200F096FEB300FB189E6932680F21A1408A4311000422A2400A43DC6A23680721A9408B432360326000F086FEF8BDC04628180000C0
:4004C000F8B5194A145C13181F7BB900C9B27D007D19EDB2154B185CA300D3189E6933680F228A4093433360022800D10020012801D1002600E0062600F060FEA4000A4BDA
:400500001C19E16A0B680722AA4093431A003300AB4013430B6000F055FE216C0B680122BA4093430B60F8BD281800005002002010B5002403E02000FFF7C2FF0134092CD1
:40054000F9D910BD044A11684002C023DB001840084310607047C04604000840CA0807231940063B8B40825C134201D0012000E00020704710B504000134E4B20A2C06D01C
:40058000210004480430FFF7E9FF0028F4D0200010BDC046C4000020F8B50400234B1B1854229B5C9B00224A9E5801002148FFF7D5FF214B9E4203D88640FF231B041E437A
:4005C0001E4B185D013880B2002100F015FC1C4B185D013880B2002100F02AFC0F2000F03BFC18480168184B1940184B1B5D184A125D120413430B430360164F3D68164B03
:400600001D40164B1D430F2000F01CFC2000FFF733FF00F0D3FD04003D60002000F0C4FD0F4B1E60200000F0CDFDF8BD28180000C400002024020020FFFFFEFF5C020020A1
:400640002C0200200800084000FF80FF380200204402002004000840FF1FDFFF200020000C00084010B5054B00221A70C2B21A7681221A70FFF790FF10BDC046AC010020AB
:4006800010B50C4C00232370FF332376207EC0B2FFF770FF2076237EDBB2092B08D8217801230B43DBB22370207EC0B2FFF774FF10BDC046AC01002070B50500184B1C68FA
:4006C000A4B24300174AD3189C80174B1B1854229B5C9B00154A9A58154B9A4208D801001448FFF73BFF6B000E4AD31804419C802800FFF7E5FE0F2000F0AEFB0E4A1168B9
:400700000E4B0B40A02109020B4313600C4A11680C4B0B4013600F2000F094FB70BDC0460C000840AC01002028180000C4000020FFFFFEFF2402002004000840FF1FDFFFF5
:400740000800084000FF80FF10B5CC0807231940063B8B40DBB2002A04D0041922781343237003E0041922789A43227010BDC04670B50600002400250BE03000FFF772FF86
:40078000FFF76AFE0128FBD03000FFF76DFE24180135002DF1D0A0B270BDC046014B19547047C0465002002010B5002404E000212000FFF7F3FF0134092CF8D9FFF7ECFD79
:4007C0000020FFF7BFFEFFF7B3FE10BD10B50B4B5B7E002B04D1FFF7E7FF0122074B5A76FFF71CFE00F098FA0122044B9A76044A13688021C9030B43136010BDAC010020F8
:4008000004000840F0B5002714E00C4BDE5D0C4BDB5DF6181A00002404E08D5CAC4200D22C000132B242F8D301E0CC540133B342FBD301378742E8D3F0BDC046B018000065
:40084000B418000010B54300054A9A5A05495A520818002101752024015503495A5210BDB0010020C80100207C02002010B50400FFF7F8FEFFF7F0FD0028FBD12000FFF757
:40088000E1FF10BD10B5002403E02000FFF7EEFF0134092CF9D910BD70B5094D20352D180026FF20002308E0EC5C944203D9A64201D2260018000133DBB28B42F4D370BDD9
:4008C000C8010020F0B583B004000192009308AB1878344B20335918002C02D0661EF6B200E00026631CDDB20B5D9C462D4B343362465A70002C07D12A4B002634229E54C7
:400900004A5D34339A7012E0019A013A944207D1895D244B34229954343300229A7006E08E5D204B34229E544A5D34339A7034231C4AD35C834204D91B1A342219498B5408
:4009400003E000213423174AD154164A343253781B1ADBB253709278904204D2101A114A3432907003E000210E4A343291700D490A00343292783420095C501AC9188918AB
:40098000000200F007FE240200196B4600255D5F6843FE23DB019C466044000CC0B203B0F0BDC046C8010020401849004018800880B27047F0B5474680B482B004003E4BE5
:4009C0001E5C3E4B9B5D019342003D4BD75A3D4B9B7B002B08D03C4D9046515B3800FFF7E3FF070043465853E1B2354A374800F0ADFC6300364A9A5A974207D30021354B21
:400A00001955BD1AADB20123984603E0D51BADB2002398464346002B15D12F4B9B5D9D4211D92C4B1B5D274A12191279934206D32000FFF707FF0022264B1A551EE00133F4
:400A4000244A13551AE06B469B889D4206D9224B9B5D9D4212D24346002B0FD113029C461B4801190B7D66463343FF18BF1A3A0A6300C2520F750022164B1A556B469E8842
:400A8000B5420FD94346002B0CD0FF2D05D9104B1C19FF222023E25409E00D4B1C192023E55404E00A4B1C1900222023E25402B004BC9046F0BDC0467C180000680200207F
:400AC000B0010020F40000207C020020F8020020C80100206C0200207802002010B5040000F0A2F82000FFF765FF10BD10B5002409E021000548FFF731FD002802D0200030
:400B0000FFF7ECFF0134092CF3D910BDC800002030B583B00400184B1B181D7C174B1A5C0A210020FFF7B8FEFF281ED0144B1B5D0093144B0A220021FFF7C4FE010080B2B9
:400B40006B1CDBB20C4A5219127C002A06D10A4AD3181974551901232B740BE0064CE418217CFFF721FF207404E0034B5D1900232B74054803B030BDF40000209402002073
:400B8000680200201C0B0000FFFF000010B50F2000F062F901221E4B1A601E4B1878C0B2FFF78AFD1C4B1B785BB2002B05DA1A4A137801218B43137026E0164C2078C0B274
:400BC000FFF7D8FC20702378DBB2092B05D8114B1878C0B2FFF7E0FC16E00F4B1A7801218A431A701B785B060ED500220B4B1A7006E00B4AD15C0B4AD1540133074A137014
:400C0000064B1B78012BF4D90F2000F01BF910BD14000840C4010020AC010020FF01002028020020C800002070B582B0154B1C5C154EC1B2154D009533002200144800F0DA
:400C400003FC335D295D134A1155DB2B03D8DB08114A135514E0EC2B03D81B090E4A13550EE0F42B03D85B090B4A135508E0F92B03D89B09084A135502E00022064B1A5539
:400C800002B070BD7C1800009402002068020020F80200207802002090020020024A136840218B431360704704000840044A1168044B0B40802189000B4313607047C046A6
:400CC00008000840FFFCFFFC70B5002208E00D498B5C5D080C4CA55401335B088B54013203789A42F3D30F2000F0B6F8074A1168074B0B4007490B4313600F2000F0A2F8C8
:400D000070BDC046380200204402002008000840FFFCFFFC0002000170B5254B0A221A70012159709A700E32DA80224A9A80224A9A60FFF7B3FF002304E099001F48204A98
:400D4000885001331A4A52789342F6D3002306E004211C4AD15402391B4AD1540133092BF6D9FFF7A3FF194E114C3100200000F04DFA174D29000120FFF744FD200000F00D
:400D800056FA3100200000F041FA29000120FFF739FD200000F06CFA2000FFF795FF002403E02000FFF740FF0134092CF9D970BDF8020020CC040000B81800000000FF0F44
:400DC000C40000202C0200205C0200209A0D000038020020034A1368802109060B4313607047C04600000240024A13685B005B081360704700000240034A13681B0C1B040B
:400E0000034313607047C04600000240034A1368802109060B4313607047C04640000240024A13685B005B081360704740000240034A13681B0C1B04034313607047C046CD
:400E4000400002401F2318401E3B8340014A13607047C04600E100E01F2318401E3B8340014A13607047C04680E100E001BE704770B504000D001F2802D90020FFF7F6FFB3
:400E80001034A40080239B059C4664442068256070BDC04670B504000E00032902D90020FFF7E4FF1F2C02D90020FFF7DFFF03252540ED00063500F081F9A408A400074B2B
:400EC0009C46644421680323AB4099430B003100A9401943216000F075F970BD00E400E010B5034B1B7B584300F05EF910BDC04614010020F0B557464E46C0B483B004008D
:400F000000F05CF90190E71E2D2F74D83F4B1B78DBB29C4208D83E4B1B78DBB29A463D4B1B78DBB2994631E03B4B1B78DBB29C4208D83A4B1B78DBB29A46394B1B78DBB218
:400F4000994623E0374B1B78DBB29C4208D8364B1B78DBB29A46354B1B78DBB2994615E0334B1B78DBB29C4208D8324B1B78DBB29A46314B1B78DBB2994607E02F4B1B78F2
:400F8000DBB29A462E4B1B78DBB299462D4BDE5D2F2E09D92A2C07D919222B4B1A60052000F002F9192503E0274B1D683F231D40B54206D9234BDA5D234B1A60052000F09A
:400FC000F3F81F4B9C4664442378DBB21F4A13601F4B52461A601F4B4A461A600520FFF77FFFB5420AD2174BDA5D174B1A60052000F0DAF802E00020FFF738FF019800F09E
:40100000E1F803B00CBC91469A46F0BDC0F1FF0FC1F1FF0FC2F1FF0FC3F1FF0FC4F1FF0FC5F1FF0FC6F1FF0FC7F1FF0FC8F1FF0FC9F1FF0FCAF1FF0FCBF1FF0FCCF1FF0FF7
:40104000CDF1FF0F241900002CFF0B4028FF0B401CFF0B4020FF0B40034B1868C0231B02184000D00120704700010B4010B500F0A5F8044A1368C02109020B43136000F0DD
:40108000A1F810BD00010B4010B500F097F808490A68084B1A408024E40122430A600A6813408022120213430B6000F08BF810BD00010B40FF3FFFFF70B5050000F07EF8DE
:4010C0000400FFF7C9FF002803D0FFF7DDFF012100E0002108482840084A1568084B2B40184310601368012901D1FFF7BFFF200000F068F870BDC0460404040010020B40F7
:40110000FBFBFBFF10B5244B1B685B0715D5234B1B685B070ED5224BD969042001401F4C22688A432260DA698243DA611B69002B00D098470420FFF7BFFF174B1B685B0570
:4011400018D5164B1B685B0510D5154BD9698022D2001140114802688A430260D969114A0A40DA615B69002B00D098478020C000FFF7A2FF084B1B685B030CD5074B1B685F
:401180005B0304D5064B9B69002B00D098478020C002FFF791FF10BD10020B402801002000020020FFFBFFFF0230800804D0C0460138FDD1C046C046C0467047EFF310807E
:4011C00072B6704780F310887047C046F7B59C180023071C08268025019100922370237800982B432370BB689B6C9847019B984202D22378AB432370013E6D08002EEED1D4
:401200002378F82B01D9F8232370F7BD70B5051C0E1C00242B789C4208D2AB68221C281C311C1B68FFF7D2FF0134F3E770BD38B5051C00242B789C4219D2AA6813681B5DBA
:40124000DB080F2B00D90F23D16BD268C95C1155AA68042B04D9936D906B211C012203E0936D906B211C002298470134E2E738BDF0B5041C002687B063789E4262D2A368A1
:401280005A6C925D0392002A01D1013203921A6C925D019201992278914251D29A689B69515C0F221140B2000492002205910499019D5A50019B5B000293039B019A9B185C
:4012C0009D423DD2A768E388A0885843FB68595D00F060F93B68595D00F0D2F8059B5843194B40005A2802D95B084008FAE7BA6904991B0C1B045350A36882085B6B012160
:401300005855A368C008DB69029F5A550F22A36849421B6A5855A3685B6A5A55A368986AC1530021D86AC153186B9B68C1535B19197801350A401A703B1C02330293BCE71C
:40134000013699E707B0F0BD0000FFFFF0B585684E002B6B925B9B191C8887B0141B0094AC6A1A80A45B6B6A0294EC6A5F5CA45B2B6A03946C6B7F00645C5B180494AC6814
:401380000193645C1B780594009CE40FA4460F24251C6744009C3D40AC46E51764196C409C4203D2012B05D0013B00E00133FF273F2B00D89F00019D2B7065460F2D29D0C1
:4013C000002D24D0BC4225D8059C029F24090094974200D9171C039D954200D2151C009A092A01D8141C01343A1C0A2C14D1EA1B934206D9049A92089A42924152429B1A0A
:4014000000E001338268D26953543A1C04E0151C644601E0151C00246746836824015B6A5F5483689F6ABA53DA6A9B6895530F225B181D782A401A7083689B6859180B780D
:401440001C430C7007B0F0BD70B58068446BC069655C405CFF213F2801D88100C9B246B2FF24002E01DB4000C4B28D4201D9291C6C08012081439954049B9C5470BD0000C4
:40148000002243088B4274D303098B425FD3030A8B4244D3030B8B4228D3030C8B420DD3FF22090212BA030C8B4202D31212090265D0030B8B4219D300E0090AC30B8B42BB
:4014C00001D3CB03C01A5241830B8B4201D38B03C01A5241430B8B4201D34B03C01A5241030B8B4201D30B03C01A5241C30A8B4201D3CB02C01A5241830A8B4201D38B027C
:40150000C01A5241430A8B4201D34B02C01A5241030A8B4201D30B02C01A5241CDD2C3098B4201D3CB01C01A524183098B4201D38B01C01A524143098B4201D34B01C01AF0
:40154000524103098B4201D30B01C01A5241C3088B4201D3CB00C01A524183088B4201D38B00C01A524143088B4201D34B00C01A5241411A00D20146524110467047FFE74C
:4015800001B5002000F0F0F802BDC0460029F7D076E7704703460B437FD4002243088B4274D303098B425FD3030A8B4244D3030B8B4228D3030C8B420DD3FF22090212BAC3
:4015C000030C8B4202D31212090265D0030B8B4219D300E0090AC30B8B4201D3CB03C01A5241830B8B4201D38B03C01A5241430B8B4201D34B03C01A5241030B8B4201D3EF
:401600000B03C01A5241C30A8B4201D3CB02C01A5241830A8B4201D38B02C01A5241430A8B4201D34B02C01A5241030A8B4201D30B02C01A5241CDD2C3098B4201D3CB01B7
:40164000C01A524183098B4201D38B01C01A524143098B4201D34B01C01A524103098B4201D30B01C01A5241C3088B4201D3CB00C01A524183088B4201D38B00C01A524143
:4016800043088B4201D34B00C01A5241411A00D201465241104670475DE0CA0F00D04942031000D34042534000229C4603098B422DD3030A8B4212D3FC22890112BA030AE9
:4016C0008B420CD3890192118B4208D3890192118B4204D389013AD0921100E08909C3098B4201D3CB01C01A524183098B4201D38B01C01A524143098B4201D34B01C01A10
:40170000524103098B4201D30B01C01A5241C3088B4201D3CB00C01A524183088B4201D38B00C01A5241D9D243088B4201D34B00C01A5241411A00D20146634652415B10BE
:40174000104601D34042002B00D54942704763465B1000D3404201B5002000F005F802BD0029F8D016E770477047C046014B18687047C0468C0100200E4B70B500251E0037
:401780000D4CE41AA410A54204D0AB00F35898470135F8E700F0DEF8084B00251E00084CE41AA410A54204D0AB00F35898470135F8E770BD601900006019000060190000DA
:4017C0006819000003008218934202D019700133FAE770470000000000300F40000400400F400004B808BA30BE04D804DF011A2482108604E002E4046E027A01DC035E0243
:401800006610670283018610A601D601D80101011001000005320F4005330F4003420F4008430F4002600F4001010101010303040201000001020304050100000006000031
:401840000000014004000140080001400C00014010000140080004400801044008020440080304400804044000000440000104400002044000030440000404400000000017
:401880000000000000000000020000000400000008000000100000002000000002000000010000000100000001000000400000000A000000000000003802002044020020DB
:4018C000080100202C0200205C0200207C180000C4000020C402002098020020A4020020E4020020B0020020D0020020040300202402002014190000B4180000B01800001D
:401900007107000099050000690400005D0500004907000001010102020202040404040404040404030405060708090A0B0C0E0F101112131415161718191B1C1D1E1F205D
:4019400021222325262728292A2B2E2F3031323334354300F8B5C046F8BC08BC9E467047ED01000045030000F8B5C046F8BC08BC9E467047C501000088190000C000002011
:40198000D000000080010000000000000000FF0FFF0300000801044008010440080104400801044008010440080304400803044008040440080204400801044001000000BB
:4019C0001E1E1E1E1E1E1E1E1E1E010001000000020202020202020202020000010000000000E02EC05D00001800000000366E0104040400000000000000000000000000B0
:401A0000000000000000000000000000000000000000000052190000000000000000000000000000000000000000000000000000000000000000000000000000000000003B
:401A400000000000000000000000000000000000000000002C0100200000000000000000000000000000000000000000000000000000000000000000000000000000000019
:401A80000000000000000000000000000000000000000000000000000000000000000000000000000000000000000000000000000000000000000000000000000000000026
:401AC00000000000000000000000000000000000000000000000000000000000000000000000000000000000000000000000000000000000000000000000000000000000E6
:401B000000000000000000000000000000000000000000000000000000000000000000000000000000000000000000000000000000000000000000000000000000000000A5
:401B40000000000000000000000000000000000000000000000000000000000000000000000000000000000000000000000000000000000000000000000000000000000065
:0200000490303A
:0200000061306D
:0200000490402A
:200000000000000000000000000000000000000000000000000000000000000000000000E0
:0200000490501A
:0C000000000204C81193110104D072C367
:0200000490600A
:0100000001FE
:00000001FF