:4000000000100020110000000D0200000D02000010B500F003F9C04670B5134C23688022D20213432360182000F0E6FB22680F4B134023600E4A0F4B1A6010220E4B1A6058
:40004000822212060D4B1A60002525600C4A0D4B1A600D49092000F075FB092000F066FB0A4B1D6070BDC04600010B40FFFFFBFF0600008004010B401C02024008010B40F4
:400080001400008000000240090A00000C020B4010B572B600240FE019486200131959000B00411889881A5AC31858880004104300F08CF80134E4B2012CEDD9EE22120265
:4000C000104B1A6099231B040F4A13600F4A13600F4A117806230B43DBB2137001230D4A13600D490D4A11600D4A1360D82212010C4B1A60FFF790FF00F07EF810BDC046DD
:40010000300E00000C00014020500F4030500F4000700F4000020440B06DDB0008020440180204400803044010B5064C2378002B07D1054B002B02D0044800E000BF01239D
:40014000237010BD4001002000000000280E0000084B10B5002B03D00749084800E000BF07480368002B00D110BD064B002BFBD09847F9E70000000044010020280E00000F
:40018000C00000200000000010B500F015F900F023F900F077FA62B6002000F027F90100002000F039F904000021002000F07AFAA0B200F095FA044800F00AFAFA20800050
:4001C00000F0F8FAE8E7C0462C0E000010B50A00002100F021FE10BD064B1B68002803D080221206134301E05B005B08014A13607047C04680031A4010B50122024B1A60BD
:400200000120FFF7E9FF10BD00031A4010B500F0D7FD03680C2B00D1FEE7FEE770B50F4E0F4D13E029686B68AC68002202E001C901C30432A242FAD1E868002202E000219A
:4002400002C304328242FAD11035013E002EE9D100F0BCFDFFF798FFFEE7C04601000000900E000010B500230AE0032B03D89A000949505800E009489900094A8850013330
:400280002F2BF2D9FFF704FF8022D205116801230B43136010BDC046000000000D0200000000002010B503210E2000F05DFA21490E2000F047FA01221F4B1A601F4B1B682C
:4002C000002B01DA1E4900E01E491F4A13680B4313601E4A1E4B1A601E4A1F4B1A6000231E4A13601E4A1F490A601F490A601F4A13601F4A136001331E4A136002211E4AB2
:4003000011601E4908681E4A024013430B6000230DE09A001B4951188020C000086058000024194944521948194950500133002BEFD010BD7504000020001A4080031A4039
:40034000400E1053400E005300001A40D800008004001A400000FF0718001A401C001A400400040010001A4014001A4028021A4038021A4018021A40000F1A4030001A40CE
:40038000FFFFFFDF80001A4084010020204E00008001002010B5074B1B68002B08DB054A1368802109060B4313600A2000F01AFA10BDC04600001A4010B5064B1B78002BC1
:4003C00004D1FFF76FFF0122024B1A70FFF7E2FF10BDC0465C010020034A1368802149020B4313607047C04604001A4010B5041E02D0002000F0A4F9002C07D1A400054BB5
:400400009C46644420680004000C00E0002000B210BDC04680011A4070B504000D00002802D0002000F08CF963000F4A995A09B2691A09B20D484843002906DDA3000C4AE8
:400440009A58D30F9A18531006E0A300084A9A58D30F9A18521053421818A400044BE15800F0C2FB00B270BD840100201027000080010020014B1A681A60704710021A406B
:4004800010B50C4C2268C0218A4322602268A2398A43226021684300DBB220221343D8B208432060012000F09DF9236820229343236010BD0002044070B505000F4C22687C
:4004C0004023134323602368802293432360002000F088F923681E229343236021686D00EBB220221343D8B208432060012000F079F9236820229343236070BD00020440E9
:40050000F8B5274B1A68FE218A431A6025490868254A0240254802430A601A6840218A431A60196880220A431A60CA277F00002000F058F91A4C23682026334323600120D3
:4005400000F050F91A4B1D682368B3432360002000F048F910231D40236833432360012000F040F92368B3432360002D02D10A2000F038F9013F002D01D0002FD7D1084BEE
:400580001A6880218A431A601A687E318A431A60044A1168044B0B4006490B431360F8BD00020440080204400780FFFF4812000004020440B06D000010B50400FFF7A0FFFB
:4005C0002009FFF779FF0F202040FFF775FF10BD70B505000078012404E0FFF7EDFF285D0134E4B20028F8D170BDC04610B50400FFF786FF2009FFF743FF0F202040FFF773
:400600003FFF10BD10B5282000F0D4F80320FFF737FF052000F0CEF80320FFF731FF0F2000F0C8F80320FFF72BFF012000F0C2F80220FFF725FF052000F0BCF80620FFF765
:40064000D5FF0E20FFF7D2FF2C20FFF7CFFF0820FFF7CCFF0120FFF7C9FF0C20FFF7C6FF0320FFF7C3FF052000F0A4F810BDC04610B50C20FFF7BAFF0122014B1A7010BD2D
:400680005D01002010B5064B5B78002B04D1FFF7B9FF0122024B5A70FFF7EAFF10BDC0465D01002010B501280BD0002804D002280CD003280FD012E08039C8B2FFF796FF36
:4006C0000DE04039C8B2FFF791FF08E06C39C8B2FFF78CFF03E02C39C8B2FFF787FF10BD30B585B00400002201AB9A7209250EE00A21200000F074FAC9B2303101AB59550E
:400700000A21200000F0E6F90400013DEDB2092CEED80A21200000F063FAC9B2303101A841554019FFF754FF05B030BD1F2318401E3B8340014A13607047C04600E100E0DA
:4007400001BE704770B504000D001F2802D90020FFF7F6FF1034A40080239B059C4664442068256070BDC04670B504000E00032902D90020FFF7E4FF1F2C02D90020FFF738
:40078000DFFF03252540ED00063500F09BF9A408A400074B9C46644421680323AB4099430B003100A9401943216000F08FF970BD00E400E010B5040006E0084B586800F063
:4007C00077F9074B9C46644480231B029C42F4D8024B9868604300F06BF910BDC40000200080FFFF10B5034B1B7B584300F060F910BDC046C4000020F0B557464E46C0B442
:4008000083B0040000F05EF90190E71E2D2F74D83F4B1B78DBB29C4208D83E4B1B78DBB29A463D4B1B78DBB2994631E03B4B1B78DBB29C4208D83A4B1B78DBB29A46394B06
:400840001B78DBB2994623E0374B1B78DBB29C4208D8364B1B78DBB29A46354B1B78DBB2994615E0334B1B78DBB29C4208D8324B1B78DBB29A46314B1B78DBB2994607E0E6
:400880002F4B1B78DBB29A462E4B1B78DBB299462D4BDE5D2F2E09D92A2C07D919222B4B1A60052000F004F9192503E0274B1D683F231D40B54206D9234BDA5D234B1A60A7
:4008C000052000F0F5F81F4B9C4664442378DBB21F4A13601F4B52461A601F4B4A461A600520FFF77FFFB5420AD2174BDA5D174B1A60052000F0DCF802E00020FFF720FF2D
:40090000019800F0E3F803B00CBC91469A46F0BDC0F1FF0FC1F1FF0FC2F1FF0FC3F1FF0FC4F1FF0FC5F1FF0FC6F1FF0FC7F1FF0FC8F1FF0FC9F1FF0FCAF1FF0FCBF1FF0F3E
:40094000CCF1FF0FCDF1FF0F3C0E00002CFF0B4028FF0B401CFF0B4020FF0B40034B1868C0231B02184000D00120704700010B4010B500F0A7F8044A1368C02109020B436D
:40098000136000F0A3F810BD00010B4010B500F099F808490A68084B1A408024E40122430A600A6813408022120213430B6000F08DF810BD00010B40FF3FFFFF70B50500E2
:4009C00000F080F80400FFF7C9FF002803D0FFF7DDFF012100E0002108482840084A1568084B2B40184310601368012901D1FFF7BFFF200000F06AF870BDC04604040400F1
:400A000010020B40FBFBFBFF10B5244B1B685B0715D5234B1B685B070ED5224BD969042001401F4C22688A432260DA698243DA611B69002B00D098470420FFF7BFFF174BFD
:400A40001B685B0518D5164B1B685B0510D5154BD9698022D2001140114802688A430260D969114A0A40DA615B69002B00D098478020C000FFF7A2FF084B1B685B030CD558
:400A8000074B1B685B0304D5064B9B69002B00D098478020C002FFF791FF10BD10020B40D800002060010020FFFBFFFF000000000230800804D0C0460138FDD1C046C046D1
:400AC000C0467047EFF3108072B6704780F310887047C046002243088B4274D303098B425FD3030A8B4244D3030B8B4228D3030C8B420DD3FF22090212BA030C8B4202D368
:400B00001212090265D0030B8B4219D300E0090AC30B8B4201D3CB03C01A5241830B8B4201D38B03C01A5241430B8B4201D34B03C01A5241030B8B4201D30B03C01A5241EF
:400B4000C30A8B4201D3CB02C01A5241830A8B4201D38B02C01A5241430A8B4201D34B02C01A5241030A8B4201D30B02C01A5241CDD2C3098B4201D3CB01C01A5241830904
:400B80008B4201D38B01C01A524143098B4201D34B01C01A524103098B4201D30B01C01A5241C3088B4201D3CB00C01A524183088B4201D38B00C01A524143088B4201D31B
:400BC0004B00C01A5241411A00D20146524110467047FFE701B5002000F0F0F802BDC0460029F7D076E7704703460B437FD4002243088B4274D303098B425FD3030A8B427C
:400C000044D3030B8B4228D3030C8B420DD3FF22090212BA030C8B4202D31212090265D0030B8B4219D300E0090AC30B8B4201D3CB03C01A5241830B8B4201D38B03C01A03
:400C40005241430B8B4201D34B03C01A5241030B8B4201D30B03C01A5241C30A8B4201D3CB02C01A5241830A8B4201D38B02C01A5241430A8B4201D34B02C01A5241030A88
:400C80008B4201D30B02C01A5241CDD2C3098B4201D3CB01C01A524183098B4201D38B01C01A524143098B4201D34B01C01A524103098B4201D30B01C01A5241C3088B424A
:400CC00001D3CB00C01A524183088B4201D38B00C01A524143088B4201D34B00C01A5241411A00D201465241104670475DE0CA0F00D04942031000D34042534000229C469C
:400D000003098B422DD3030A8B4212D3FC22890112BA030A8B420CD3890192118B4208D3890192118B4204D389013AD0921100E08909C3098B4201D3CB01C01A524183096D
:400D40008B4201D38B01C01A524143098B4201D34B01C01A524103098B4201D30B01C01A5241C3088B4201D3CB00C01A524183088B4201D38B00C01A5241D9D243088B4282
:400D800001D34B00C01A5241411A00D20146634652415B10104601D34042002B00D54942704763465B1000D3404201B5002000F005F802BD0029F8D016E770477047C04651
:400DC000014B18687047C0463C0100200E4B70B500251E000D4CE41AA410A54204D0AB00F35898470135F8E700F040F8084B00251E00084CE41AA410A54204D0AB00F35827
:400E000098470135F8E770BD780E0000780E0000780E0000800E000003008218934202D019700133FAE77047000000006D76200000300F40000400400F40000403040506AD
:400E40000708090A0B0C0E0F101112131415161718191B1C1D1E1F2021222325262728292A2B2E2F3031323334354300F8B5C046F8BC08BC9E4670475101000065020000D2
:400E8000F8B5C046F8BC08BC9E46704729010000A00E0000C0000020800000004800000000000000010000000000E02EC05D00001800000000366E010404040000000000F7
:400EC000000000000000000000000000000000000000000000000000000000006A0E000000000000000000000000000000000000000000000000000000000000000000007A
:400F000000000000000000000000000000000000000000000000000000000000DC0000200000000000000000000000000000000000000000000000000000000000000000B5
:400F40000000000000000000000000000000000000000000000000000000000000000000000000000000000000000000000000000000000000000000000000000000000071
:400F80000000000000000000000000000000000000000000000000000000000000000000000000000000000000000000000000000000000000000000000000000000000031
:400FC00000000000000000000000000000000000000000000000000000000000000000000000000000000000000000000000000000000000000000000000000000000000F1
:4010000000000000000000000000000000000000000000000000000000000000000000000000000000000000000000000000000000000000000000000000000000000000B0
:0200000490303A
:02000000F9DA2B
:0200000490402A
:200000000000000000000000000000000000000000000000000000000000000000000000E0
:0200000490501A
:0C000000000204C81193110104CD0B6D27
:0200000490600A
:0100000001FE
:00000001FF